:020000040800F2
:10000000D01A0020E501000871530008735300085E
:10001000775300087B5300087F530008000000005E
:1000200000000000000000000000000083530008F2
:10003000855300080000000087530008895300081A
:10004000FF010008FF010008FF010008FF01000890
:10005000FF010008FF010008FF010008FF01000880
:10006000FF010008FF010008FF010008FF01000870
:10007000FF010008FF010008FF010008FF01000860
:10008000FF010008FF010008FF010008FF01000850
:10009000FF010008FF010008FF010008FF01000840
:1000A000FF010008FF010008FF010008FF01000830
:1000B00091530008B3530008D1530008FF01000812
:1000C000FF010008FF010008FF010008FF01000810
:1000D000FF010008553B0008FF010008E53B000850
:1000E000FF010008FF010008FF01000800F002F80E
:1000F00000F068F80AA090E8000C82448344AAF15A
:100100000107DA4501D100F05DF8AFF2090EBAE857
:100110000F0013F0010F18BFFB1A43F0010318473B
:10012000E0630000006400000A444FF0000C10F887
:10013000013B13F0070408BF10F8014B1D1108BF65
:1001400010F8015B641E05D010F8016B641E01F805
:10015000016BF9D113F0080F1EBF10F8014BAD1C55
:100160000C1B09D16D1E58BF01F801CBFAD505E073
:1001700014F8016B01F8016B6D1EF9D59142D6D3CD
:10018000704700000023002400250026103A28BFF5
:1001900078C1FBD8520728BF30C148BF0B607047F9
:1001A000642905F0BB82002070471FB505F0EEFC06
:1001B00004000020002105F045FD401C60601FBDCB
:1001C00010B510BD05F0BDFC1146FFF7EEFF04F0C1
:1001D000D2FF05F0EDFC03B4FFF7F2FF03BC03F020
:1001E0002BFB00000948804709480047FEE7FEE76F
:1001F000FEE7FEE7FEE7FEE7FEE7FEE7FEE7FEE7D7
:1002000004480549054A064B704700008755000819
:10021000ED000008D0140020D01A0020D0160020D5
:10022000D016002031490143314A1160704770B542
:10023000002100230F22C47804B32D4C246804F459
:10024000E064C4F5E064210AC1F10403CA404478C3
:1002500004FA03F18478144021430901254C0678FF
:10026000A155047804F01F050124AC4005786D11F8
:10027000AD0005F1E025C5F8004109E0047804F07F
:100280001F050124AC401C4D0678761145F8264028
:1002900070BD1A4A0A400243154B1B1F1A60704773
:1002A00039B1134A121D12680243114B1B1D1A600B
:1002B00006E00F4A121D126882430D4B1B1D1A6087
:1002C0007047042808D14FF0E021096941F004018A
:1002D0004FF0E022116107E04FF0E021096921F0C1
:1002E00004014FF0E0221161704700000000FA05A0
:1002F0000CED00E000E400E080E100E080FFFF1F83
:1003000010B50446FA48844208D10121401500F096
:1003100055FD0021601500F051FD17E0F5488442BD
:1003200008D10121001500F049FD0021201500F041
:1003300045FD0BE0F048844208D10121C80300F0DC
:100340003DFD00214FF4004000F038FD10BD30B5F8
:100350000246002000235068E84C20400D790C68CC
:1003600044EA0524204350609068E54C2040D1E9E0
:1003700002542C434D7944EA450420439060D06AEE
:1003800020F470000C7C641EE4B2234340EA035066
:10039000D06230BD00210160017141718160C16096
:1003A00001210174704721B1826842F0010282602C
:1003B00003E0826822F001028260704721B1826806
:1003C00042F48072826003E0826822F4807282606C
:1003D000704710B50023CBB21AB144681C43446087
:1003E00002E044689C43446010BD816841F008010C
:1003F00081607047014600208A6802F008020AB155
:10040000012000E000207047816841F00401816014
:100410007047014600208A6802F004020AB10120F8
:1004200000E00020704721B1826842F4A00282609F
:1004300003E0826822F4A002826070470146002037
:100440008A6802F480020AB1012000E000207047AF
:1004500010B50A4600210023416821F46041531E73
:1004600041EA4331416010BD21B1426842F400626B
:10047000426003E0426822F4006242607047F0B5D7
:1004800004460D4600200021092D11DDE068A5F18C
:100490000A0606EB4607072606FA07F18843A5F188
:1004A0000A0606EB460603FA06F10843E0600CE094
:1004B000206905EB4507072606FA07F1884305EB97
:1004C000450603FA06F108432061072A0FDA606B3C
:1004D000561E06EB86071F2606FA07F18843561EAE
:1004E00006EB860605FA06F10843606322E00D2A52
:1004F0000FDA206BD61F06EB86071F2606FA07F1D8
:100500008843D61F06EB860605FA06F108432063EA
:1005100010E0E06AA2F10D0606EB86071F2606FA38
:1005200007F18843A2F10D0606EB860605FA06F1EF
:100530000843E062F0BD21B1826842F4801282601B
:1005400003E0826822F48012826070470146C86C22
:1005500080B2704766484C300068704721B14268ED
:1005600042F48062426003E0426822F480624260AA
:10057000704721B1426842F48052426003E0426811
:1005800022F48052426070470A460021816821F4BB
:10059000E04111438160704721B1826842F400421A
:1005A000826003E0826822F400428260704721B1D9
:1005B000826842F40212826003E0826822F402122E
:1005C00082607047014600208A6802F400120AB176
:1005D000012000E000207047F0B5044615460020D9
:1005E00000220026092911DDE068A1F10A0707EBC6
:1005F000470C072707FA0CF29043A1F10A0707EB13
:10060000470703FA07F21043E0600CE0206901EBB2
:10061000410C072707FA0CF2904301EB410703FA5C
:1006200007F210432061A06BC0F30156EF1C06F1E6
:10063000010CA7EB0C0707EB870C1F2707FA0CF23E
:100640009043EF1C06F1010CA7EB0C0707EB8707A3
:1006500001FA07F21043A063F0BD10B50A4600216D
:100660000023816B21F44011531E41EA0351816341
:1006700010BD08B5002300930090009B0B4400932D
:10068000009B1A6008BD08B5024600200090009249
:1006900001F12800009B184400900098006880B287
:1006A00008BD0A4600214168164B194011434160BC
:1006B00070474162826270470A460021416821F01A
:1006C0001F0111434160704740B109490831096871
:1006D00041F40001064A0832116007E0044908317C
:1006E000096821F40001024A0832116070470000D5
:1006F0000024014000280140003C0140FFFEF0FFC3
:10070000FDF7F1FFFFFD3FFF0246002013680B409D
:100710000BB1012000E000207047CA43026070471F
:1007200070B502460020002300240B125568CEB29B
:1007300005EA060415681D4015B10CB1012000E062
:10074000002070BD00220A12D343036070470000EE
:1007500010B50446CC48844208D10121042000F0A1
:100760002DFB0021042000F029FB46E0C74884420D
:1007700008D10121082000F021FB0021082000F011
:100780001DFB3AE0C248844208D10121102000F04C
:1007900015FB0021102000F011FB2EE0BD48844223
:1007A00008D10121202000F009FB0021202000F0C9
:1007B00005FB22E0B848844208D10121402000F026
:1007C000FDFA0021402000F0F9FA16E0B348844217
:1007D00008D10121802000F0F1FA0021802000F0F2
:1007E000EDFA0AE0AE48844207D10121801500F0FD
:1007F000E5FA0021A01500F0E1FA10BD10B50121C5
:10080000084600F0DBFA0021012000F0D7FA10BD05
:100810002DE9F04102460025002600200023002497
:10082000002791F803C00CF00F0591F803C00CF0FD
:10083000100CBCF1000F03D091F802C04CEA050582
:1008400091F800C0BCF1000F31D0146800202BE0FB
:100850004FF0010C0CFA00F3B1F800C00CEA0306EB
:100860009E4220D183004FF00F0C0CFA03F7BC43DB
:1008700005FA03FC4CEA040491F803C0BCF1280F0C
:1008800006D14FF0010C0CFA00FCC2F814C00AE0CB
:1008900091F803C0BCF1480F05D14FF0010C0CFAE0
:1008A00000FCC2F810C0401C0828D1D31460B1F875
:1008B00000C0BCF1FF0F34DD546800202EE000F1D1
:1008C000080C4FF0010808FA0CF3B1F800C00CEA6C
:1008D00003069E4221D183004FF00F0C0CFA03F760
:1008E000BC4305FA03FC4CEA040491F803C0BCF1D4
:1008F000280F05D100F1080C08FA0CF8C2F8148092
:1009000091F803C0BCF1480F07D100F1080C4FF07B
:10091000010808FA0CF8C2F81080401C0828CED351
:100920005460BDE8F0814FF6FF71018002218170B3
:100930000421C17070470246002093680B400BB140
:10094000012000E0002070470146886880B27047AF
:1009500002460020D3680B400BB1012000E00020CC
:1009600070470146C86880B27047016170474161B5
:1009700070470AB1016100E041617047C160704792
:100980004FF480320A4382618161826182698269A7
:10099000704702460020434B18684FF6807318409A
:1009A00040EA021008433F4B186070473E49C86157
:1009B0007047F0B50A46002300240021002500F00E
:1009C0000046B6F1004F02D1364EF16901E0354ED6
:1009D0007168C0F3034583B200F44016B6F5401FBA
:1009E00008D121F070612F4E766826F070662D4F89
:1009F0007E6012E000F48016B6F5801F06D1032653
:100A000006FA05F4A14341F0706106E0460D360197
:100A100003FA06F6B14341F0706122B1460D36018A
:100A200003FA06F6314300F00046B6F1004F02D15A
:100A30001C4EF16101E01B4E7160F0BD30B500222B
:100A40008B071C0F0F2303FA04F2164B08338C108C
:100A500053F824309343134C08348D1044F8253058
:100A600023468C1053F824308C07240F00FA04F42A
:100A700023430C4C08348D1044F8253030BD0A490E
:100A8000DC3108607047000000080140000C0140A4
:100A9000001001400014014000180140001C0140FA
:100AA000002001400000014000002042DF480068B3
:100AB00040F00100DD49086008464068DC49084014
:100AC000DA49486008460068DA490840D7490860B2
:100AD0000846006820F4802008600846406820F43A
:100AE000FE0048604FF41F0088607047CF490968D6
:100AF00021F48031CD4A11601146096821F480212A
:100B00001160B0F5803F03D0B0F5802F0ED106E024
:100B1000C649096841F48031C44A116007E0C349FD
:100B2000096841F4A021C14A116000E000BF00BF84
:100B3000704710B501460022002300204A11012A07
:100B400002D1BA4C236806E0022A02D1B74C236ACC
:100B500001E0B64C636A01F01F02012494401C407E
:100B60000CB1012000E0002010BD38B5002000903D
:100B70000024002500BF3120FFF7DBFF0546009869
:100B8000401C00900098B0F5A06F01D0002DF2D06D
:100B90003120FFF7CEFF08B1012400E000242046F9
:100BA00038BD01460020A14A106820F0F80040EA54
:100BB000C10010607047A0490860704702460020DD
:100BC0009A4B586820F47C1042EA01031843974B73
:100BD0005860704798490866704701460020934A5C
:100BE000506820F003000843506070478F48406809
:100BF00000F00C007047014600208C4A506820F03D
:100C0000F00008435060704701460020874A506852
:100C100020F4E06008435060704701460020834A9A
:100C2000506820F4605040EAC1005060704729B11C
:100C30007E4A527A02437D4B5A7204E07B4A527AD2
:100C400082437A4B5A7270477B49D83108607047AB
:100C500001460020754A506820F440400843506027
:100C600070470021714A20321170704A82F82010BA
:100C7000012802D004280AD104E001216B4A203265
:100C8000117005E00521694A2032117000E000BFB3
:100C900000BF70476949086070476449096A0143A9
:100CA000624A11627047654944390860704730B53F
:100CB00000210022002400235C4D6D6805F00C012A
:100CC00021B1042905D0082923D105E05C4D056038
:100CD00022E05B4D05601FE0544D6D6805F4701215
:100CE000524D6D6805F48034022505EB92421CB923
:100CF000544D554305600BE04C4D6D6805F40035CF
:100D00001DB1504D5543056002E04D4D5543056002
:100D100002E04B4D056000BF00BF444D6D6805F01B
:100D2000F0010909484D6B5C0568DD4045603F4DA9
:100D30006D6805F4E061090A434D6B5C4568DD4070
:100D400085603A4D6D6805F46051C90A3E4D6B5C93
:100D50004568DD40C560354D6D6805F44041890B3F
:100D60003A4D6B5CC568B5FBF3F5056130BD29B143
:100D70002E4A526902432D4B5A6104E02B4A5269B4
:100D800082432A4B5A61704729B1284A926902432B
:100D9000264B9A6104E0254A92698243234B9A616B
:100DA000704729B1214AD2690243204BDA6104E03D
:100DB0001E4AD26982431D4BDA61704729B11B4A32
:100DC000D2680243194BDA6004E0184AD2688243C1
:100DD000164BDA60704729B1144A12690243134B6B
:100DE0001A6104E0114A12698243104B1A6170477C
:100DF00012494039086070470F49C86470470B4971
:100E0000C87170470948406A40F0807007494862DD
:100E1000704701460020054A92680A400AB1012045
:100E200000E00020704701498872704700100240BE
:100E30000000FFF8FFFFF6FE00004242800442423D
:100E400000127A0000093D00000000201000002080
:100E500010B50446BE48844208D101218014FFF732
:100E6000ADFF0021A014FFF7A9FF16E0B9488442A6
:100E700008D101210014FFF7AEFF00212014FFF775
:100E8000AAFF0AE0B448844207D10121C013FFF74A
:100E9000A2FF0021E013FFF79EFF10BD10B5002256
:100EA000028802F441520B884C8823438C882343E8
:100EB000CC8823430C8923434C8923438C892343C7
:100EC000CC8923431A430280838B4FF2FF74234063
:100ED00083830B8A038210BD2DE9F04F85B0054650
:100EE0000C464FF0000902274FF000084FF0010BAD
:100EF0000026B246A88B4FF240010840A88302208A
:100F00002884B5F81C90A068022801D100BF38E001
:100F1000A08810B94FF0010B01E04FF0020B8D4893
:100F2000854200D100E000BF6846FFF7C0FEDDF853
:100F300000A0E088B0F5007F0AD14FEA1A2000EB4C
:100F400080004000A168B0FBF1F0401D86B20BE0CC
:100F50004FEA4B10BAFBF0F000EB80004000A168B4
:100F6000B0FBF1F0401D86B20A20B6FBF0F606F0A9
:100F70000108A6EB0800C0F34F074FF6FF7000EA28
:100F80000828022F01DBFF2F02DD02274FF00008A7
:100F9000E08840EA080038432884A088A1890843F3
:100FA000618808432188084340F4006040EA090949
:100FB000A5F81C9005B0BDE8F08F002101804180AC
:100FC0008180C180018141818181C18107210182AC
:100FD00070470021018041808180C18002218160B1
:100FE00000218181704721B1028842F040020280D5
:100FF00004E002884FF6BF731A400280704721B1A7
:10100000828B42F48062828304E0828B4FF6FF334E
:101010001A408283704730B5002400230C1101254B
:10102000A540ABB21AB185881D43858002E0858852
:101030009D43858030BD1AB183880B43838002E0D5
:1010400083888B43838070478181704701468889FC
:1010500070474FF6FF62914204D0028842F48072DA
:10106000028004E002884FF6FF631A400280704756
:1010700021B1828842F00402828004E082884FF627
:10108000FB731A408280704702884FF2FF731A4048
:10109000028002880A4302807047018841F480512F
:1010A0000180704721B1028842F40052028004E0BE
:1010B00002884DF6FF731A400280704702460020F6
:1010C000012901D0108B00E0908A70470146088A00
:1010D0007047B1F5804F04D1028842F4804202800B
:1010E00004E002884BF6FF731A4002807047024604
:1010F000002013890B400BB1012000E00020704755
:10110000CA4302817047F0B5024600200024002344
:10111000002501F00F070126BE40B4B20B110126D5
:101120009E40B3B2968806EA03051689264016B19A
:101130000DB1012000E00020F0BD10B5002201F04B
:101140000F040123A3409AB2D343038110BD0000D2
:101150000030014000380040003C004010B504461B
:10116000FE48844208D10121C014FFF727FE002168
:10117000E014FFF723FEC4E0B4F1804F08D1012151
:101180000846FFF728FE00210120FFF724FEB8E003
:10119000F348844208D101210220FFF71CFE002100
:1011A0000220FFF718FEACE0EE48844208D101218E
:1011B0000420FFF710FE00210420FFF70CFEA0E042
:1011C000E948844208D101210820FFF704FE0021EC
:1011D0000820FFF700FE94E0E448844208D1012192
:1011E0001020FFF7F8FD00211020FFF7F4FD88E044
:1011F000DF48844208D101212020FFF7ECFD0021C7
:101200002020FFF7E8FD7CE0DA48844208D1012184
:101210004014FFF7D3FD00216014FFF7CFFD70E00D
:10122000D548844209D10121C804FFF7C7FD002138
:101230004FF40020FFF7C2FD63E0D048844209D19B
:1012400001210805FFF7BAFD00214FF48010FFF7D8
:10125000B5FD56E0CA48844209D101214805FFF78F
:10126000ADFD00214FF40010FFF7A8FD49E0C5488F
:10127000844208D101214020FFF7ADFD002140202C
:10128000FFF7A9FD3DE0C048844208D1012180203C
:10129000FFF7A1FD00218020FFF79DFD31E0BB4855
:1012A000844208D101218015FFF795FD0021A0158A
:1012B000FFF791FD25E0B648844209D101210804D9
:1012C000FFF77CFD00214FF48030FFF777FD18E039
:1012D000B048844209D101214804FFF76FFD002185
:1012E0004FF40030FFF76AFD0BE0AB48844208D1B1
:1012F00001218804FFF762FD00214FF48020FFF7F1
:101300005DFD10BD00220288944B98420ED0994B8F
:1013100098420BD0B0F1804F08D0914B984205D045
:10132000904B984202D0904B984204D14FF68F7365
:101330001A404B881A438D4B984207D08C4B9842E9
:1013400004D04FF6FF431A40CB881A4302808B88A3
:1013500083850B880385814B98420BD0854B98423F
:1013600008D08B4B984205D08A4B984202D08A4BCA
:10137000984201D10B7A038601238382704770B5AE
:10138000002400220023058C4FF6FE7635400584AC
:10139000028C8388048B4FF68F752C40B51E2C4031
:1013A0000D882C43751E2A400D892A434D882A43F7
:1013B0006A4DA8420BD06F4DA84208D0744DA84288
:1013C00005D0744DA84202D0734DA84213D14FF6F8
:1013D000F7752A404D892A434FF6FB752A408D88C0
:1013E0002A434FF6FF652B404FF6FF552B408D8962
:1013F0002B43CD892B4383800483CD88858602844B
:1014000070BD70B5002400220023058C4FF6EF76E6
:1014100035400584028C8388048B48F6FF752C4088
:101420004FF6FF452C400D884FF6FF7606EA05255E
:101430002C434FF6DF752A400D8906EA05152A432D
:101440004D8806EA05152A43444DA84202D0494D6D
:10145000A8421DD14FF67F752A404D894FF6FF7681
:1014600006EA05152A434FF6BF752A408D8806EA1D
:1014700005152A434FF6FF352B404FF2FF752B40E1
:101480008D8906EA85052B43CD8906EA85052B4320
:1014900083800483CD880587028470BD70B50024E5
:1014A00000220023058C4FF6FF6635400584028C30
:1014B0008388848B4FF68F752C404FF6FC752C403B
:1014C0000D882C434FF6FF552A400D894FF6FF76C5
:1014D00006EA05252A434D8806EA05252A431F4DBD
:1014E000A84202D0234DA8421DD14FF2FF752A40D9
:1014F0004D894FF6FF7606EA05252A434FF6FF355C
:101500002A408D8806EA05252A434EF6FF752B40B2
:101510004DF6FF752B408D8906EA05152B43CD89C5
:1015200006EA05152B4383808483CD888587028452
:1015300070BD70B5002200230024058C4EF6FF76A6
:1015400035400584038C8488828B48F6FF752A40D9
:101550004FF6FF452A400D8820E00000002C014096
:101560000004004000080040000C00400010004053
:101570000014004000340140004C01400050014084
:101580000054014000180040001C004000200040B2
:101590000040014000440140004801404FF6FF7602
:1015A00006EA05252A434DF6FF752B400D8906EA0C
:1015B00005352B434D8806EA05352B43FA4DA842E5
:1015C00002D0FA4DA84208D14BF6FF752C408D8908
:1015D0004FF6FF7606EA85152C4384808283CD88FA
:1015E000A0F84050038470BD828B4FF2FF331A4045
:1015F0008283828B4FF6FF7303EA01231A438283AF
:101600007047F0B50C461546002200210026078CD5
:101610004EF6FF7C07EA0C070784828B018C4FF69D
:10162000FF7707EA043640F6FF473A404FF6FF7768
:1016300007EA05273A434FF6FF7707EA03373A43AD
:10164000D94FB8420ED0D94FB8420BD0B0F1804F2D
:1016500008D0D74FB84205D0D64FB84202D0D64FA7
:10166000B84206D14DF6FF77394046F480573943EA
:1016700005E047F6FF57394044F4805739438283E9
:101680000184F0BD828B4FF6F3731A408283828B04
:101690000A4382837047F0B50C46154600220021AC
:1016A0000026078C4FF6FF6C07EA0C070784828B35
:1016B000018C4FF6FF7707EA04264FF60C773A4085
:1016C0004FF6FF7707EA03172F433A43B64FB84266
:1016D0000ED0B64FB8420BD0B0F1804F08D0B44F07
:1016E000B84205D0B34FB84202D0B34FB84206D18A
:1016F0004FF6FF57394046F48077394305E04FF203
:10170000FF57394044F48077394382830184F0BD28
:10171000028B4FF2FF331A400283028B4FF6FF73A6
:1017200003EA01231A4302837047F0B50C461546BD
:10173000002200210026078C4FF6EF7C07EA0C07F9
:101740000784028B018C4FF6FF7707EA041640F6F8
:10175000FF473A404FF6FF7707EA03373A434FF621
:10176000FF7707EA05273A438F4FB8420ED08F4FD5
:10177000B8420BD0B0F1804F08D08D4FB84205D0A1
:101780008C4FB84202D08C4FB84206D14FF6DF776B
:10179000394046F01007394305E04FF65F7739408E
:1017A00044F01007394302830184F0BD028B4FF6E9
:1017B000F3731A400283028B0A4302837047F0B529
:1017C0000C46154600220021068C4FF6FE773E405F
:1017D0000684028B018C4FF60C7632407E1C06EAA2
:1017E00003162E433243704EB0420ED06F4EB042BD
:1017F0000BD0B0F1804F08D06D4EB04205D06D4E89
:10180000B04202D06C4EB04206D14FF6FD76314068
:1018100044F00106314305E04FF6F576314044F0DF
:101820000106314302830184F0BD70B505460C46C4
:101830005D4885420ED05D4885420BD0B5F1804FA2
:1018400008D05B48854205D05A48854202D05A48A4
:10185000854200D100E000BF208850B92389A288CA
:1018600061882846FFF7ABFFE1882846FFF79EFF17
:1018700025E0208804280AD12389A2886188284687
:10188000FFF753FFE1882846FFF742FF17E0208863
:1018900008280AD12389A28861882846FFF7FBFE21
:1018A000E1882846FFF7EEFE09E02389A2886188D7
:1018B0002846FFF7A6FEE1882846FFF795FE70BD93
:1018C0002DE9F04105460C4600260127608808B93D
:1018D000022600E00026A088012801D1022700E0AE
:1018E00001272088A0B92389A28861882846FFF7AC
:1018F00066FFE1882846FFF759FF23893A463146BB
:101900002846FFF712FFE1882846FFF701FF13E0A2
:101910002389A28861882846FFF707FFE1882846C7
:10192000FFF7F6FE23893A4631462846FFF747FF80
:10193000E1882846FFF73AFFBDE8F0810A884B8826
:101940001A438B881A43CB881A430B891A434B8955
:101950001A438B891A43A0F8442070474FF6FF7151
:10196000818000210180C180418001727047002187
:10197000018041808180C180018141818181C1815B
:101980007047002101804180012181800021C180B8
:10199000018170470021018041808180C1800181E7
:1019A0004181818170470000002C014000340140DA
:1019B0000004004000080040000C004021B10288F3
:1019C00042F00102028004E002884FF6FE731A40E2
:1019D0000280704731B1B0F8442042F40042A0F8D0
:1019E000442005E0B0F84420C2F30E02A0F84420E1
:1019F00070471AB183890B43838102E083898B434B
:101A0000838170478182704741EA0203A0F8483021
:101A100070471AB183890B43838102E083898B432A
:101A20008381704701894FF6F87211400181704738
:101A30000A46002101894FF68F7319401143018135
:101A4000704730B504460D4629462046FFF7F0FFA3
:101A5000208940F00700208130BD2DE9F041044687
:101A60000D4616461F46602D06D13B4601223146E3
:101A70002046FFF75AFE05E03B460122314620464C
:101A8000FFF79DFE29462046FFF7D2FF208940F050
:101A900007002081BDE8F08130B50C4600210189A6
:101AA000C9B24FF6FF7505EA0325154325432943BF
:101AB000018130BD2DE9F04105460E461746984696
:101AC000002443463A4631462846FFF7E5FF2C8975
:101AD0004FF6F870044044F007044FF68F7004404E
:101AE00044F070042C81BDE8F081F0B504460D4649
:101AF00016461F463B46324629462046FFF7CCFF96
:101B0000208940F480402081F0BD018582827047A9
:101B10000A46002101884FF68F7319401143018056
:101B20007047F0B50C4615461E46002100220023E2
:101B30000189028B038C4FF6F877394021434FF629
:101B4000FC473A4040F201173A434FF6DD773B40FD
:101B50004FF6FF7707EA06172F433B4301810283C5
:101B60000384F0BD0A460021018B4FF68F731940A4
:101B70001143018370470A460021018B48F6FF7329
:101B800019404FF6FF7303EA02231943018370479C
:101B90000A460021818B4FF68F73194011438183D0
:101BA00070470A460021818B48F6FF7319404FF6B3
:101BB000FF7303EA022319438183704721B102882E
:101BC00042F08002028004E002884FF67F731A40E0
:101BD0000280704721B1828842F00402828004E0D2
:101BE00082884FF6FB731A408280704721B1828849
:101BF00042F00802828004E082884FF6F7731A40B0
:101C00008280704721B1828842F00102828004E024
:101C100082884FF6FE731A40828070470A46002180
:101C2000018B4FF6F77319401143018370470A4641
:101C30000021018B4FF2FF7319404FF6FF7303EA47
:101C400002231943018370470A460021818B4FF616
:101C5000F77319401143818370470A460021818B35
:101C60004FF2FF7319404FF6FF7303EA0223194343
:101C7000818370470A460021018B4FF6FB731940A0
:101C80001143018370470A460021018B4FF6FF3351
:101C900019404FF6FF7303EA02231943018370478B
:101CA0000A460021818B4FF6FB7319401143818353
:101CB00070470A460021818B4FF6FF3319404FF6DB
:101CC000FF7303EA02231943818370470A46002108
:101CD000018B4FF67F7319401143018370470A4609
:101CE0000021018BC1F30E014FF6FF7303EA0223BB
:101CF0001943018370470A460021818B4FF67F7399
:101D000019401143818370470A460021818BC1F33A
:101D10000E014FF6FF7303EA0223194381837047D4
:101D20000A460021018C4FF6FD73194011430184CE
:101D300070470A460021018C4FF6F7731940114392
:101D4000018470470A460021018C4FF6DF73194069
:101D50004FF6FF7303EA02131943018470470A46E2
:101D60000021018C4FF67F7319404FF6FF7303EA91
:101D700002131943018470470A460021018C4FF673
:101D8000FF5319404FF6FF7303EA022319430184FE
:101D900070470A460021018C4FF2FF7319404FF63D
:101DA000FF7303EA02231943018470470A460021A6
:101DB000018C4DF6FF7319404FF6FF7303EA0233AF
:101DC00019430184704730B5002301248C40A3B22D
:101DD000048C9C430484048C02FA01F5ADB22C43BC
:101DE000048430BD30B5002304248C40A3B2048C9D
:101DF0009C430484048C02FA01F5ADB22C430484A4
:101E000030BD70B503460020002418461830012567
:101E10008D40ACB21D8CA5431D8409B1082909D1A0
:101E200000EB6100056825F0700505600568154345
:101E300005600EE00D1FC5F34E052844056825F426
:101E4000E045056005684FF6FF7606EA0226354351
:101E5000056070BD21B1028842F00202028004E0F8
:101E600002884FF6FD731A400280704721B1028844
:101E700042F00402028004E002884FF6FB731A402D
:101E80000280704721B1828842F08002828004E0A3
:101E900082884FF67F731A408280704702884FF61F
:101EA000F7731A40028002880A43028070478288D2
:101EB0004FF68F731A40828082880A43828070476F
:101EC00002894FF6F8731A40028102890A4302819F
:101ED000704702894FF67F731A40028102890A43D4
:101EE0000281704781847047818570478186704781
:101EF0000187704781877047A0F8401070470288BB
:101F00004FF6FF431A40028002880A43028070475E
:101F10000146888E70470146088F70470146888FBA
:101F200070470146B1F8400070470146888C704701
:101F30000146088D704702460020138A0B400BB102
:101F4000012000E000207047CA430282704730B58C
:101F50000246002000230024158A05EA0103958922
:101F600005EA010413B10CB1012000E0002030BDEE
:101F7000CA4302827047000010B50446FB48844201
:101F800009D101218803FEF719FF00214FF4804099
:101F9000FEF714FF32E0F648844209D101214804DB
:101FA000FEF719FF00214FF40030FEF714FF25E083
:101FB000F048844209D101218804FEF70CFF00217A
:101FC0004FF48020FEF707FF18E0EB48844209D168
:101FD0000121C804FEF7FFFE00214FF40020FEF7A8
:101FE000FAFE0BE0E548844208D101210805FEF71E
:101FF000F2FE00214FF48010FEF7EDFE10BD2DE93A
:10200000F04786B005460E460024A24600BFA14612
:102010000027B08900B100BF2F462C8A4CF6FF7014
:102020000440F08804432C82AC894EF6F31004403F
:10203000B08831890843718908430443AC81AC8A74
:102040004FF6FF400440B0890443AC8201A8FEF77C
:102050002EFEC648874202D1DDF810A001E0DDF86F
:102060000CA0A88900F4004040B10AEBCA0000EBC4
:102070000A1031684900B0FBF1F807E00AEBCA002A
:1020800000EB0A1031688900B0FBF1F86420B8FB5E
:10209000F0F004012009642101FB1089A88900F4F3
:1020A000004040B1322000EBC900B0FBF1F000F07D
:1020B0000700044308E0322000EB09106421B0FB64
:1020C000F1F000F00F0004432C8106B0BDE8F0876A
:1020D0004FF41651016000218180C18001810C21E3
:1020E000418100218181704710B502460020108A8D
:1020F0004FF2FF0318400B884C8823438C882343FE
:10210000CC8823431843108210BD002101804180F8
:102110008180C180704721B1828942F4005282815E
:1021200004E082894DF6FF731A4082817047F0B552
:102130000346002400260025002040F66A17B94215
:1021400000D100BF1846C1F3421401F01F06012759
:1021500007FA06F5012C01D10C3004E0022C01D164
:10216000103000E014301AB107682F43076002E016
:102170000768AF430760F0BD1AB1838A0B438382BF
:1021800002E0838A8B4383827047028A4FF6F073A2
:102190001A400282028A0A430282704782894FF201
:1021A000FF731A40828182890A438281704721B17C
:1021B000828942F00202828104E082894FF6FD7337
:1021C0001A4082817047028A4FF6DF731A400282FA
:1021D000028A0A430282704721B1028A42F4804295
:1021E000028204E0028A4BF6FF731A4002827047B3
:1021F000C1F308028280704701468888C0F3080056
:102200007047818941F0010181817047028BD2B210
:102210000283028B42EA012202837047028B02F49E
:102220007F420283028B0A430283704721B1828A74
:1022300042F02002828204E0828A4FF6DF731A4065
:102240008282704721B1828A42F01002828204E0C9
:10225000828A4FF6EF731A408282704721B1828AD8
:1022600042F00802828204E0828A4FF6F7731A4035
:102270008282704721B1828942F40042828103E068
:102280008289C2F30E028281704721B1828A42F4B0
:102290000062828204E0828A4FF2FF731A408282D7
:1022A0007047828A4FF6FB731A408282828A0A4301
:1022B0008282704721B1828A42F00202828204E067
:1022C000828A4FF6FD731A408282704702460020D0
:1022D000B1F5007F00D100BF13880B400BB1012086
:1022E00000E00020704701F40072B2F5007F00D1D9
:1022F00000BFCA430280704770B502460024002325
:102300000025002040F66A16B14200D100BFC1F39B
:10231000421501F01F03012606FA03F3012D02D135
:102320009689334006E0022D02D1168A334001E03F
:10233000968A33400C12012606FA04F416883440BB
:1023400013B10CB1012000E0002070BD10B50022D7
:10235000002340F66A14A14200D100BF0A120124F2
:102360009440A3B2DC43048010BD0000003801405B
:102370000044004000480040004C00400050004035
:1023800008B501210520FEF7FFFC01218B48FEF76F
:1023900010FB01218A48FEF70CFB4FF40140ADF819
:1023A000000003208DF8020010208DF8030069461C
:1023B0008448FEF72DFA01210920FEF7E5FC48F2DA
:1023C0003800ADF8000003208DF8020010208DF8D1
:1023D000030069467C48FEF71BFA08BD10B57B4830
:1023E000007811287AD2DFE800F0DD0916253241A5
:1023F0004E5D6A7A8796A3B2BBC6CF007448408808
:102400004FF080418885C9136F48FEF7AEFA01206E
:1024100070490870C7E06E48408840F6C911081A34
:1024200089078885C9136848FEF7A1FA0120694920
:102430000870B8E0664880884FF08041888589152B
:102440006048FEF792FA012062490870ABE06048EC
:10245000808840F6C911081A890788858915594866
:10246000FEF785FA01205B4908709CE05848C08857
:102470004FF08041888520215348FEF776FA0120ED
:10248000544908708FE05248C08840F6C911081AB4
:102490008907888520214C48FEF769FA01204D49BB
:1024A000087080E04A4800894FF0804188851021FB
:1024B0004548FEF75AFA01204649087073E044483F
:1024C000008940F6C911081A8907888510213E48FD
:1024D000FEF74DFA01203F49087064E062E03C4895
:1024E00040894FF08041888508213748FEF73DFA42
:1024F00001203849087056E03548408940F6C91136
:10250000081A8907888508212F48FEF730FA01202C
:102510003049087047E02E4880894FF08041888517
:10252000C9132848FEF721FA01202A4908703AE029
:102530002748808940F6C911081A89078885C91378
:102540002048FEF714FA0120224908702BE02048A9
:10255000C0894FF08041888501201E49087022E023
:102560001B48C08940F6C911081A890788850120CF
:102570001849087017E01648008A4FF08041888596
:102580000120144908700EE01148008A40F6C91174
:10259000081A8907888501200E49087000200B4918
:1025A000087000E000BF00BF10BD10B507480078FC
:1025B000401C06490870FFF711FF10BD00023000F3
:1025C0000004300000080140000C0140140000200D
:1025D000F20000203601002008B54FF4A060FDF79E
:1025E00021FE1C208DF8000000208DF801008DF8E0
:1025F000020001208DF803006846FDF718FE08BDB3
:1026000008B54FF4A060FDF70DFE1D208DF8000009
:1026100000208DF8010001208DF802008DF80300E4
:102620006846FDF704FE08BD08B54FF4A060FDF74D
:10263000F9FD1E208DF8000000208DF80100022019
:102640008DF8020001208DF803006846FDF7EFFDCC
:1026500008BD0EB501210846FEF7A3FB4FF08040F0
:10266000FEF77CFD40F6C910ADF804004720ADF838
:10267000000000208DF80800ADF80600ADF802005B
:1026800069464FF08040FEF73DFE01218807FFF7C5
:102690005BFC012211469007FFF7ABF900214FF0D8
:1026A0008040FFF78BF90EBD0EB501210220FEF729
:1026B00078FB4748FEF752FD0920ADF8040047209B
:1026C000ADF800000020ADF806008DF80800ADF868
:1026D000020069463E48FEF715FE01213C48FFF71F
:1026E00033FC012211463A48FFF783F900213848AC
:1026F000FFF764F90EBD0EB501210420FEF751FB72
:102700003448FEF72BFD4FF4FA60ADF80400472083
:10271000ADF800000020ADF806008DF80800ADF817
:10272000020069462B48FEF7EDFD01212948FFF71D
:102730000BFC012211462748FFF75BF900212548D1
:10274000FFF73CF90EBD0EB501210820FEF729FB6D
:102750002148FEF703FD4FF6FF70ADF80400472057
:10276000ADF800000020ADF80600ADF802006946A3
:102770001948FEF7C7FD01211748FFF7E5FB0122C5
:1027800011461548FFF735F900211348FFF716F9F0
:102790000EBD10B5FFF720FFFFF75BFFFFF744FF0B
:1027A000FFF7A9FF10BD10B501218807FFF706F953
:1027B00001210848FFF702F910BD10B500214FF0C4
:1027C0008040FFF7FBF800210248FFF7F7F810BD43
:1027D0000004004000080040000C004008B5012142
:1027E0000420FEF7D1FA4FF48040ADF80000282015
:1027F0008DF8030069467B48FEF70AF84FF46050F5
:10280000ADF8000010208DF8030003208DF80200C1
:1028100069467448FDF7FCFF08BD38B50446012041
:102820000090002070494870012000902EE0BDF813
:102830000000204018B101206C49086002E000202F
:102840006A4908600120694908390860322000F0AF
:10285000ACFF00206649C1F8AC01322000F0A5FFB2
:1028600001206349C1F8AC010846D0F8380130B105
:102870005D484078BDF8001008435B494870BDF8DA
:1028800000004FF6FF7101EA40000090BDF8000023
:10289000FF28CCDD38BD10B500205449091F086061
:1028A00054490878FFF7B9FF52494878FFF7B5FF58
:1028B00001204F49C1F8B0014B484078732801D13D
:1028C000002010BD0120FCE71CB500200190012074
:1028D000009000204549091F086046490878FFF725
:1028E0009CFF44494878FFF798FF0220019033E0AD
:1028F0000120009024E001203C49083908600020B4
:102900003B49C1F8AC01322000F04FFF01203849AB
:10291000C1F8AC010846D0F8380150B132489DF8F2
:102920000410405CBDF8001008432F499DF80420B6
:102930008854BDF800004FF6FF7101EA4000009096
:10294000BDF80000FF28D6DD322000F02EFF9DF8F4
:102950000400401CC0B201909DF804000928C7DBA8
:1029600001202249091F08601CBD002004E000214D
:102970001D4A1154411CC8B20928F8DB704710B534
:10298000FFF7F3FFFFF7A0FF1748C0781649097952
:1029900040EA01201849088000241BE0174810F87D
:1029A0001400401E012101FA00F013490988084073
:1029B00070B9124810F81400401E012101FA00F00D
:1029C0000D49097808400E490870601CC0B210BD5E
:1029D000601CC4B2102CE1DB0020F8E7014602487D
:1029E000405C70470008014090010020B401214282
:1029F000000021421A000020180000201C000020C6
:102A00003C00002008B501210820FEF7BDF94FF475
:102A10008040ADF8000010208DF8030003208DF8F1
:102A2000020069461748FDF7F3FE4FF48041154850
:102A3000FDF79BFF08BD10B54FF480411148FDF72D
:102A400096FF4FF4FA7000F0C8FE4FF480410D4835
:102A5000FDF78BFF4FF4FA7000F0BFFE4FF480419A
:102A60000848FDF784FF4FF4FA7000F0B6FE4FF40B
:102A700080410448FDF779FF4FF4FA7000F0ADFE95
:102A800010BD0000000C014070B50546002405E0B3
:102A9000601CC4B2C82C01DD002070BD02212F488B
:102AA000FEF725FB0028F3D029462C48FEF7CCFA88
:102AB000002405E0601CC4B2C82C01DD0020ECE756
:102AC00001212648FEF713FB0028F3D02348FEF728
:102AD000BDFAC0B2E1E708B5012141F20400FEF7FA
:102AE00053F9E020ADF8000018208DF80300032012
:102AF0008DF8020069461A48FDF78AFEE021184861
:102B0000FDF733FF0020174908804FF4827048809A
:102B1000002088800220C88001200881400248816E
:102B2000382088810020C881072008820B48FEF7E2
:102B3000B5F901210948FEF756FAFF20FFF7A4FF77
:102B400008BD10B504460748848101460348FEF7D6
:102B5000A5F901210148FEF746FA10BD00300140F9
:102B6000000801409A01002010B500240020CC4943
:102B700008609020FFF788FF0020FFF785FF002006
:102B8000FFF782FF0020FFF77FFFFF20FFF77CFFAA
:102B900044EA0024FF20FFF777FF04430120C149E6
:102BA000C1F8B001204610BD08B501210820FEF78C
:102BB000EBF84FF48050ADF8000010208DF80300C2
:102BC00003208DF802006946B748FDF721FE4FF457
:102BD0008051B548FDF7C9FEFFF77DFF0820FFF7DC
:102BE000B0FFFFF7C1FFB149088008BD10B5002450
:102BF0000020AB4908600520FFF746FFFF20FFF7E4
:102C000043FF04460120A749C1F8B001204610BD8A
:102C100010B504460020A24908600120FFF734FFE8
:102C20002046FFF731FF01209E49C1F8B00110BDD9
:102C300010B500209A4908600620FFF725FF012003
:102C40009849C1F8B00110BD10B500209449086042
:102C50000420FFF719FF01209249C1F8B00110BD0F
:102C60002DE9F04106460C46174600208C490860C5
:102C70000320FFF709FFC4F30740FFF705FFC4F384
:102C80000720FFF701FFE0B2FFF7FEFE002505E099
:102C9000FF20FFF7F9FE7055681C85B2BD42F7DBD7
:102CA00001207F490860BDE8F08110B500BFFFF743
:102CB0009DFF00F001000028F9D110BD2DE9F04181
:102CC00006460C461746FFF7B3FF0020744908601C
:102CD0000220FFF7D9FEC4F30740FFF7D5FEC4F387
:102CE0000720FFF7D1FEE0B2FFF7CEFE002504E09B
:102CF000705DFFF7C9FE681C85B2BD42F8DB01209C
:102D000067490860FFF7D1FFBDE8F0812DE9F04188
:102D100007460E461446F0B2C0F58075AC4200DCA2
:102D2000254612E02A4631463846FFF7C7FFAC4237
:102D300000D10BE02F442E44601B84B2B4F5807F99
:102D400002DD4FF4807500E02546EBE700BFBDE8EB
:102D5000F08110B504462403FFF76AFFFFF7A5FFD3
:102D600000204F4908602020FFF78EFEC4F3074083
:102D7000FFF78AFEC4F30720FFF786FEE0B2FFF7F5
:102D800083FE01204749C1F8B001FFF78EFF10BD57
:102D90002DE9F04781460F4616464FEA1738C7F32C
:102DA0000B0ACAF58054A64200DC344644E04FEAE0
:102DB00008314FF480523E48FFF752FF002508E0EB
:102DC0000AEB05003A49085CFF2800D003E0681CC4
:102DD00085B2A542F4DB00BFA54216DA4046FFF7F4
:102DE000B8FF002507E019F8050005EB0A01304A95
:102DF0005054681C85B2A542F5DB4FEA08314FF408
:102E000080522B48FFF782FF04E0224639464846AD
:102E1000FFF77CFFA64200D10FE008F101084FF058
:102E2000000AA1442744301B86B2B6F5805F02DD5C
:102E30004FF4805400E03446B9E700BFBDE8F087A6
:102E400010B5FFF7F5FEFFF730FF002014490860CA
:102E5000C720FFF719FE01201249C1F8B001FFF7A2
:102E600024FF10BD10B500200D490860B920FFF700
:102E70000BFE01200B49C1F8B001032000F095FCC6
:102E800010BD10B5002006490860AB20FFF7FCFD1F
:102E900001200449C1F8B001032000F086FC10BDF8
:102EA000B081214200802142000C01403E00002000
:102EB000AC0100200146A1F130020A2A1AD2DFE853
:102EC00002F00507090B0D0F11131517002011E073
:102ED00001200FE002200DE003200BE0042009E0B8
:102EE000052007E0062005E0072003E0082001E0B8
:102EF000092000BF00BF7047F0B585B005460E46FB
:102F00001421684602F0E2FC0024002700BF0CE018
:102F10000A20B5FBF0F100FB115030300DF8040031
:102F2000601CC4B20A20B5FBF0F5002DF0D1274695
:102F3000002406E0381B401E1DF800003055601CC0
:102F4000C4B2BC42F6DB0020305505B0F0BD000035
:102F500010B50024FD48007888BBFD48007807289C
:102F600022DAFB480078401CF9490870F9480078DB
:102F7000401CF849087008460078072801D1002055
:102F8000087000240DE0F44830F81400F149097885
:102F900001EBC101F14A02EB410121F81400601C70
:102FA000C4B2092CEFDB02E00020ED490870E848CC
:102FB0000078002834DD0120EA49087030E0FFE79E
:102FC000E948006BB0F5FA4F24D2E74890F830009A
:102FD00000F00F0020B9E449096B0809FFF7B9FEBA
:102FE000E148006B01024FF48072E048FFF7D0FE29
:102FF000DD48006B401CDC490863DD48006840F098
:103000000100DB490860DB48007820F00100D94965
:10301000087005E0D748007840F00100D5490870F5
:1030200010BDCD48D449097830F81100D349D24AAF
:10303000127821F81200704770B50546002423214C
:10304000284602F0B4FB04460CB9012070BD641C94
:103050002078302805DB2078392802DC6078502879
:103060000ED0207830280DDB207839280ADC6078F3
:10307000302807D16078392804DCA078502801D1A5
:103080000020E3E7BEA1284602F09BFB90B1B848C0
:10309000006840F40050B64908607821BB4802F04F
:1030A000F3FB0020BA498872BAA1BC4800F021FDA8
:1030B0000120CBE7BAA1284602F083FB50B1AC480F
:1030C000006840F48040AA4908600020B049C872F6
:1030D0000120BBE7B5A1284602F073FB041E10D007
:1030E000A348006840F40040A14908600020A849B6
:1030F000C87204F1080002F04DFBA54908730120D5
:10310000A4E7ADA1284602F05CFB70B18F480078BF
:1031100018B10120AA49087005E00120A9490870EA
:10312000002090490870012090E7A7A1284602F0EE
:1031300048FBB8B101F0CEF834218B4802F0C6FB51
:10314000A348406A8849C862A148406A08630120D0
:103150007E4908708648006840F001008449086094
:10316000012073E79BA1284602F02BFB60B10020F1
:103170009A4908807549087001209249087000201A
:1031800078490870012061E795A1284602F019FBF3
:1031900070B100208A4908706C4908709249087023
:1031A0007348006840F010007149086001204DE745
:1031B0008EA1284602F005FBA0B1002063490870EB
:1031C0008C49087001207F4908700020654908700B
:1031D00001F080F86648006840F02000644908600B
:1031E000012033E784A1284602F0EBFA041E1CD02C
:1031F00000205649087001207B4908707149087009
:1032000000205849087001F065F8E01D02F0C2FA8C
:103210005F498872887A01F0BFF85548006840F02D
:10322000400053490860012010E775A1284602F0CC
:10323000C8FA88B140F2DF70FFF78BFD4FF480725F
:1032400071494A48FFF7A4FD4948006840F480509E
:10325000474908600120F9E66CA1284602F0B1FA5E
:10326000041E23D000203949087004F1080002F040
:1032700091FA47494860486801F08EF866A12846EF
:1032800002F09FFA0446A01C02F084FA36494885F1
:103290003748006840F080003549086001204949FE
:1032A000087000202F4908700120CFE65BA1284656
:1032B00002F087FAB0B100202449087001F00AF842
:1032C0000120434981F82D002948006840F48070AE
:1032D0002749086001203B490870002021490870F7
:1032E0000120B3E64CA1284602F06BFA041E2BD055
:1032F00000201649087000F0EDFF4BA1284602F0AF
:1033000060FA0446601C02F045FA214948604868AA
:1033100001F042F840A1284602F053FA0446A01CEE
:1033200002F038FA1A4908721148006840F4007037
:103330000F49086001203D490870224908700020AB
:1033400008490870012081E672E000004801002071
:10335000300100203301002004010020740000200F
:1033600037010020380100205C13002028120020C3
:10337000540100205C01002040000020F2000020E9
:10338000233235355052414400000000C013002064
:10339000901300202350574D520000000038014088
:1033A0002332353550554C4B000000002332353563
:1033B000504D4F44000000002353746F7000000014
:1033C0004D0100203501002023446F776E0000007E
:1033D0002C1300202353544F5000000058010020AC
:1033E00023566572692B00004B01002023466C694F
:1033F00073740000490100202346526561642D006A
:10340000235053320000000000F07D0023456E6120
:10341000626C652300000000474300002344697389
:1034200061626C6500000000230000004E01002076
:103430006AA1284602F0C5F9041E17D00020694988
:10344000087000F047FFA01D02F0A4F96649487219
:103450006648006840F4806064490860012064495F
:1034600008700020634908700120EFE562A128463A
:1034700002F0A7F968B15D48006840F400605B495C
:10348000086001205A49087000205A49087001203C
:10349000DCE55BA1284602F094F938B15348006896
:1034A00040F48030514908600120CFE557A12846FB
:1034B00002F087F938B14D48006840F400304B49BC
:1034C00008600120C2E50020C0E52DE9FE4F04465A
:1034D00000260027B046B146B246B346002002900F
:1034E0000190009000252046FFF7A6FD08B1BDE839
:1034F000FE8F2146484800F0FCFA67E00298012858
:103500000ED1605D502809D0605DFFF7D3FC814685
:1035100006EB860009EB4000C6B201E000200290F5
:103520000198012825D1605D542801D0012000E0D8
:103530000020615D232901D0012100E00021084025
:1035400048B1605DFFF7B6FC824607EB87000AEBE7
:10355000400087B20DE00020019040F6C410874281
:1035600000DD07462D4820F816702D48067000270C
:1035700000260098012818D1605DFFF79BFC834668
:1035800008EB88000BEB40001FFA80F82348A0F8F6
:103590000080681C205C0D2807D1B8F1640F02DCA4
:1035A000FFF73FFD01E0FFF7D3FC605D232801D169
:1035B00001200290605D502801D101200190605DE2
:1035C000542801D101200090681C85B2605D0A2852
:1035D00001D0FF2D92DB00BF89E700002346446540
:1035E0006C2D0000480100209013002054010020A1
:1035F000350100203801002023466F726D61740090
:1036000023464D51454E41424C45000023464D5105
:1036100044495341424C4500004800400401002009
:103620004000002008B501210820FDF7ADFB4FF454
:103630000050ADF8000010208DF8030003208DF835
:10364000020069460E48FDF7E3F84FF400510C48BC
:10365000FDF78BF908BD10B54FF400510848FDF790
:1036600086F94FF4FA7000F0B8F84FF400510448AE
:10367000FDF77BF94FF4FA7000F0AFF810BD0000D1
:10368000000C014000B587B001214FF40170FDF737
:103690007BFB4FF40040FDF7DBFA1020ADF804008F
:1036A00000208DF8070001A92348FDF7B1F8234851
:1036B000FCF726FE002002908DF80C008DF80D001E
:1036C0004FF4602004900020059001208DF8180030
:1036D00002A91A48FCF73BFE01211848FCF763FEDB
:1036E0001648FCF782FE00BF1448FCF783FE002852
:1036F000FAD11248FCF788FE00BF1048FCF789FE9B
:103700000028FAD107B000BD10B5044607230122F6
:1037100021460A48FCF7B3FE01210848FCF783FE66
:1037200000BF02210548FCF7EFFF0028F9D003484D
:10373000FCF70CFF10BD0000000801400024014010
:1037400030B538480068384AB0FBF2F1B1F1807FFB
:1037500001D301201DE021F07F40401E4FF0E02208
:10376000506150170F22002807DA13071D0E2F4B48
:1037700000F00F04241F1D5503E013071C0E2C4BF3
:103780001C5400BF00204FF0E02290610720106120
:10379000002008B100BFFEE74FF0E020006920F0F4
:1037A00001004FF0E021086130BD224908604FF070
:1037B000E021096941F001014FF0E022116100BFF1
:1037C0001C4909680029FBD14FF0E021096921F06B
:1037D00001014FF0E022116170474FF47A714143CB
:1037E000144A11604FF0E021096941F001014FF0E6
:1037F000E022116100BF0F4909680029FBD14FF099
:10380000E021096921F001014FF0E02211617047C8
:103810000848006820B107480068401E0549086054
:10382000704700007C01002040420F0018ED00E0CE
:1038300000E400E048000020014600BF704700BFE0
:10384000F74A128802F04002002AF9D0C2B2F44BC3
:103850001B1D1A80704708B54FF4A060FCF7E2FC0E
:1038600025208DF8000001208DF8010000208DF842
:10387000020001208DF803006846FCF7D8FC08BD63
:1038800008B54FF4A060FCF7CDFC26208DF80000B1
:1038900001208DF801008DF802008DF803006846C4
:1038A000FCF7C5FC08BD08B54FF4A060FCF7BAFCF6
:1038B00027208DF8000001208DF8010002208DF8EE
:1038C000020001208DF803006846FCF7B0FC08BD3B
:1038D00008B5012144F20400FDF756FA4FF40070D8
:1038E000ADF8000003208DF8020018208DF80300C9
:1038F0006946CC48FCF78CFF4FF48060ADF80000BF
:1039000004208DF803006946C648FCF781FF08BD16
:1039100008B501210420FDF737FA01214804FDF71D
:1039200040FA0420ADF8000003208DF802001820B2
:103930008DF803006946BB48FCF76AFF0820ADF824
:10394000000004208DF803006946B648FCF760FFCC
:1039500008BD08B501210820FDF716FA01218804E9
:10396000FDF71FFA4FF48060ADF8000018208DF8C5
:10397000030003208DF802006946AB48FCF748FFBE
:1039800008BD10B50446012C04D1FFF764FFFFF712
:103990009FFF0CE0022C04D1FFF772FFFFF7B8FF86
:1039A00005E0032C03D1FFF77EFFFFF7D2FF10BD28
:1039B0007FB505460C4600940020ADF80400ADF834
:1039C0000600ADF80800ADF80C000C20ADF80A00B8
:1039D00069462846FEF713FB012240F2255128468E
:1039E000FEF7A5FB01212846FEF795FB7FBD1FB51D
:1039F000044600940020ADF80400ADF80600ADF8D0
:103A00000800ADF80C000C20ADF80A0069468748A4
:103A1000FEF7F5FA012240F225518448FEF787FBB4
:103A200001218248FEF71AFC01218048FEF773FB52
:103A30001FBD10B586B00446012144F20400FDF715
:103A4000A3F94FF40070ADF8140003208DF81600B0
:103A500018208DF8170005A97248FCF7D9FE4FF41D
:103A60008060ADF8140004208DF8170005A96D489A
:103A7000FCF7CEFE4FF4A060FCF7D4FB25208DF8B8
:103A8000000001208DF8010000208DF802000120C7
:103A90008DF803006846FCF7CAFB01940020ADF8DE
:103AA0000800ADF80A00ADF80C00ADF810000C20CD
:103AB000ADF80E0001A95A48FEF7A1FA012240F222
:103AC00025515748FEF733FB01215548FEF723FBEC
:103AD00006B010BD70B504460D4629462046FEF7D7
:103AE00087FB00BF40212046FEF7F0FB0028F9D0FD
:103AF00070BD70B506460C46002505E014F8011BA4
:103B00003046FFF7E7FF6D1C207810B1B5F5FA7F5E
:103B1000F4D370BD10B586B00446142101A801F09D
:103B2000D5FE01A92046FFF7E7F901A93C48FFF7B8
:103B3000E0FF06B010BD70B504460D46214638487A
:103B4000FFF7D7FF2846FFF7E5FF39A13448FFF715
:103B5000D0FF70BD10B508213148FEF7B7FB18B192
:103B600008212F48FEF7BFFB40F225512C48FEF7F5
:103B7000C3FB002835D040F225512948FEF7E6FB6B
:103B80002748FEF739FBC4B22A48007808BB2A4808
:103B90002A490968445429480068401C274908609C
:103BA00008460068401E2449085C0A2803D02348C0
:103BB0000068FF2815D900201F49204A1268885440
:103BC00001201C4908701E49087000201B4908602C
:103BD00007E01C48007820B1532C02D101201A497B
:103BE000087010BD10B5002440F225510F48FEF7B3
:103BF00083FB002851D040F225510C48FEF7A6FB6C
:103C00000A48FEF7F9FAC4B210480078F0BB232C3A
:103C100022D100200E4908700E480978445431E042
:103C20000038014000080140000C014000480040FD
:103C30000A0000004C000020281200205400002040
:103C400034010020480100204D0100204F010020D8
:103C5000580000203814002013480078401E1349F3
:103C6000085C0D280ED100200F4A127888540120DC
:103C70000F49087000200C4908704FF480410D482E
:103C8000FCF775FE09480849097800E005E044544E
:103C900005480078401C0449087010BD10B506485E
:103CA000FFF713FC10BD000058000020381400205E
:103CB0004F010020000C0140281200207FB5002693
:103CC0000024002000900190029003900025FE48FF
:103CD0000078002877D00020FB490870FEF74FFEDF
:103CE000FA490860FEF7D7FDF949087008460078E0
:103CF000002869D1F7480068F4490968884200D172
:103D00007FBDF2480068F3490860F0480068401F32
:103D10000C2876D2DFE800F006210F18596B4E62AE
:103D20002A45333C0020EC4908604FF49670FFF7B9
:103D300054FD012669E00020E74908604FF49670C1
:103D4000FFF74BFD022660E00020E34908604FF4D6
:103D50009670FFF742FD032657E00020DE49086019
:103D60004FF49670FFF739FD04264EE00020DA4943
:103D700008604FF49670FFF730FD072645E00020FD
:103D8000D54908604FF49670FFF727FD08263CE000
:103D90000020D14908604FF49670FFF71EFD0926F8
:103DA00033E00020CC4908604FF49670FFF715FD12
:103DB0000A262AE00020C84908604FF49670FFF7F1
:103DC0000CFD062621E067E067E00020C24908609C
:103DD0004FF49670FFF701FD052616E00020BE495E
:103DE00008604FF49670FFF7F8FC0C260DE00020F9
:103DF000B94908604FF49670FFF7EFFC0B2604E01A
:103E0000FFE70120B449086000BF00BF002E43D087
:103E10000120B2490870B24908707822B149B2480D
:103E2000FEF71EFF3246B1A1684601F02FFC69463D
:103E3000AF48FFF75EFE6946AB4801F0C2FC04469E
:103E4000002CE4D0684601F0CEFC044409E014F8EC
:103E5000010B0DF80500681CC5B22078232800D19D
:103E600004E00E2D02DA20780028F0D100BF0C2DDE
:103E70000EDA0D200DF805000A21681C0DF800105F
:103E80000F2269469B4801F0CDFC01209A49087039
:103E900098499748FFF72DFE1AE28D4800780128CF
:103EA000FAD18A480068401F0C287AD2DFE800F077
:103EB0002D7A0652F0EFEEED9FECC6F18F48808828
:103EC0000A308E4988800846808840F6FC01884286
:103ED00002DB084689498880894800680A30884999
:103EE00008600846006840F69801884202D30846F8
:103EF00083490860824883A10268684601F0C6FBD6
:103F000069468348FFF7F5FDE1E17C4880880A387F
:103F10007A49888008468088B0F52F7F02DC4FF40C
:103F20002F708880764800680A387549086008460E
:103F30000068B0F52F7F02D84FF42F7008607048EA
:103F400070A10268684601F0A1FB69467048FFF75E
:103F5000D0FDBCE1694840880A306849488008467D
:103F6000408840F6FC01884202DB084663494880ED
:103F7000684800680A30674908600846006840F6EB
:103F80009801884202D3084662490860614862A1EC
:103F90000268684601F07AFB69465D48FFF7A9FDB3
:103FA00095E193E1554840880A38544948800846CD
:103FB0004088B0F52F7F02DC4FF42F7048805548C1
:103FC00000680A385349086008460068B0F52F7F3A
:103FD00002D84FF42F7008604E484FA1026868461F
:103FE00001F054FB69464A48FFF783FD6FE14348FF
:103FF000C0880A304149C8800846C08840F6FC01A4
:10400000884202DB08463D49C880464800680A30BD
:10401000444908600846006840F69801884202D387
:104020000846404908603F483FA10268684601F0E1
:104030002DFB69463648FFF75CFD48E12F48C088F4
:104040000A382E49C8800846C088B0F52F7F02DCA8
:104050004FF42F70C880334800680A38314908602F
:1040600008460068B0F52F7F02D84FF42F70086023
:104070002C482DA10268684601F008FB69462448D7
:10408000FFF737FD23E104E063E0D3E086E0F8E0EA
:10409000ABE01A4800890A301849088108460089AF
:1040A00040F6FC01884202DB084614490881214899
:1040B00000680A301F4908600846006840F6FC01A5
:1040C00088423BD3084637E05A0100206C000020AC
:1040D0006C01002070000020B481214251010020B9
:1040E0003401002000F07D00C013002025644B0047
:1040F00000380140281200204C000020F20000206F
:104100001C010020233250256454310D0A000000A8
:104110000048004018010020233150256454310D1F
:104120000A00000020010020233350256454310D83
:104130000A00000024010020F7490860F648F7A1B2
:104140000268684601F0A2FA6946F748FFF7D1FC19
:10415000BDE0F64800890A38F4490881084600891C
:10416000B0F52F7F02DC4FF42F700881EA48006819
:104170000A38E949086008460068B0F52F7F02D880
:104180004FF42F700860E448E4A10268684601F02B
:104190007DFA6946E448FFF7ACFC98E0E3484089C3
:1041A0000A30E24948810846408940F6FC018842CD
:1041B00002DB0846DD494881DD4800680A30DC49F9
:1041C00008600846006840F69801884202D3084615
:1041D000D7490860D648D7A10268684601F056FA68
:1041E0006946D148FFF785FC71E0D04840890A381C
:1041F000CE49488108464089B0F52F7F02DC4FF454
:104200002F704881CA4800680A38C94908600846C2
:104210000068B0F52F7F02D84FF42F700860C448B3
:10422000C4A10268684601F031FA6946BE48FFF74A
:1042300060FC4CE0BD4880890A30BC498881084652
:10424000808940F6FC01884202DB0846B749888134
:10425000BB4800680A30BA4908600846006840F662
:10426000FC01884202D30846B5490860B448B5A1AC
:104270000268684601F00AFA6946AB48FFF739FC64
:1042800025E0AA4880890A38A8498881084680899B
:10429000B0F52F7F02DC4FF42F708881A8480068AA
:1042A0000A38A749086008460068B0F52F7F02D891
:1042B0004FF42F700860A248A2A10268684601F07E
:1042C000E5F969469848FFF714FC00E000BF00BF1D
:1042D00000BF15E510B530219D4801F0F7FA3022F6
:1042E0004FF4FA019A48FEF7BBFC9948806A994955
:1042F000884204D100BF96480078092803DD3021A8
:10430000934801F0E3FA10BD10B50024914890499C
:10431000886208200870084690F82C404FF4FA6034
:10432000FEF717FD30224FF4FA018948FEF730FD01
:10433000FFF7D0FF864890F82C00A04206D08648B0
:10434000007840F004008449087005E08248007855
:1043500020F004008049087010BD70B500240025CD
:10436000601E7E490860FFF7B5FF00BF0CE078488B
:10437000401C005D012805D179484455681CC5B230
:1043800076480460601CC4B2714890F82C00A042CA
:10439000EDDC7448056070BD10B5044634217248E8
:1043A00001F094FA47F6105000EB04100102342299
:1043B0006D48FEF755FC6C48C06A6B49096B884232
:1043C00009D269480078A04205D167480178604861
:1043D000401C405C20B93421634801F077FA07E0C3
:1043E000614890F82A00614908725F48C06A086015
:1043F00010BD70B5044600255B4890F83050002091
:1044000000EB041000F00F0030B947F6105101EB3B
:1044100004110809FEF79DFC47F6105000EB04104C
:10442000010234225048FEF7B3FC2046FFF7B4FFE8
:104430004D48006BA84206D04748007840F008007D
:104440004549087005E04448007820F008004249DA
:10445000087070BD30B58BB0282101A801F036FA84
:104460000025002442480068002854D040480078C5
:1044700000F0010048B141213E48FFF72BFB3C48CA
:10448000006820F001003A4908603948007800F0DF
:10449000080048B138A13748FFF72BFB34480068C3
:1044A00020F00800324908603148007800F002002E
:1044B00088B1274890F82C00421E31A101A801F0D4
:1044C000E5F801A92B48FFF714FB2948006820F004
:1044D0000200274908602648007800F0100048B123
:1044E0002BA12448FFF705FB2148006820F01000AD
:1044F0001F4908601E48007800F0200000287DD089
:10450000134890F82C00002879DD29A11948FFF7FD
:10451000F0FA002470E0E0E124010020233450256B
:104520006454310D0A00000000480040F2000020F1
:1045300028010020233550256454310D0A00000065
:104540002C010020233650256454310D0A00000050
:104550002C130020785634125C01002064010020E6
:10456000A0130020600100205C13002090130020A5
:1045700054010020003801402343430D0A0000008D
:1045800023446F776E2B4F4B2B25640D0A000000E0
:1045900023566572692B554152542B4F4B2B3230A9
:1045A0003136303930362B3137360D0A00000000F5
:1045B00023000000FD48005D01281CD12046FFF7C4
:1045C000EBFEFB48006BFA49C96A401A05D100218D
:1045D000F6480155FFF798FE0DE0F548006BF449E9
:1045E000C96A431A2246F3A101A801F04FF801A9B4
:1045F000F648FFF77EFA641CEC4801E01BE009E096
:10460000401E90F82C00A042D4D8F1A1EF48FFF74B
:1046100070FA0AE0E548401EEEA1426A01A801F0E6
:1046200035F801A9E948FFF764FAEB48006820F083
:104630002000E9490860E848007800F0800068B18F
:10464000DB490878FFF7D5FEE4A1E048FFF751FA0F
:10465000E148006820F08000DF490860DE480088FB
:1046600000F4807008B300240DE0D048005D0128FC
:1046700008D12046FFF790FE0020CD49488520460E
:10468000FFF7B7FE641CC948401E90F82C00A042FA
:10469000EBD8FFF739FED5A1CC48FFF72AFACE4870
:1046A000006820F48070CC490860CB48008800F492
:1046B0000070E0B1D2A1C548FFF71BFAD2484268AA
:1046C000D2480388D2A101A800F0E0FF01A9BF48A9
:1046D000FFF70FFAD1A1BD48FFF70BFABE480068FB
:1046E00020F40070BC4908600120CE490870BA4827
:1046F000008800F48060002847D0C348407AAB4966
:10470000491E91F82C10884239DA0021BE48427ABD
:10471000A6488154FFF7F8FDFFF71FFEBA48417A1B
:10472000A248401E90F82C00401E814221D1BE4874
:104730000078401C9D49491E81F82C00BA48006849
:10474000401C10B90020486211E0B7480068FFF72C
:1047500023FE9748006B9549491E48620846406A07
:104760000011102101EB00109049491E4862FFF72B
:10477000CBFDFFF7F2FDADA19448FFF7BAF99648DB
:10478000006820F48060944908609348008800F431
:10479000006028B3A8A18D48FFF7ABF90120AA4912
:1047A0000870FEF74DFB0020974908727F49491EAB
:1047B000486281F82C0020217C4801F065F8FFF761
:1047C000A3FDA2A18148FFF794F900209E4908703B
:1047D0008148006820F400607F490860FFF7BDFD54
:1047E0007D48008800F4805048B19CA17748FFF7CD
:1047F00080F97948006820F480507749086076484D
:10480000008800F40050002867D07F48807A142880
:104810007DDA96480078002860D0954800F0BAFF0D
:10482000C5B27948807AA84252D19148001D00F063
:10483000B1FF044623462A468EA18D48401E00F053
:1048400025FF8B49491E6148FFF753F96E48807A6E
:10485000401C6D49887223208DF804000846807A38
:10486000642190FBF1F00A2190FBF1F201FB1200B0
:104870003030C0B28DF805006348807A90FBF1F0CB
:1048800090FBF1F201FB12003030C0B28DF806004F
:104890005D48807A90FBF1F201FB12003030C0B22B
:1048A0008DF8070050208DF8080052208DF809007F
:1048B00041208DF80A0044208DF80B000D208DF862
:1048C0000C000A208DF80D0001A96C48FFF711F9C2
:1048D0000020664908706A49086062E0684800681C
:1048E000401C6749086008460068B0F5967F58DBB1
:1048F0004548807A401C4449887223208DF8040082
:104900000846807A642190FBF1F00A2100E03BE048
:1049100090FBF1F201FB12003030C0B28DF80500BF
:104920003948807A90FBF1F090FBF1F201FB120024
:104930003030C0B28DF806003348807A90FBF1F237
:1049400001FB12003030C0B28DF8070050208DF806
:10495000080052208DF8090041208DF80A004420FB
:104960008DF80B000D208DF80C000A208DF80D003D
:1049700001A94248FFF7BDF800203C4908704149B1
:1049800008703F4908600CE01348006820F40050AC
:104990001149086000201C4988720DA10B48FFF7DF
:1049A000A8F80D48008800F480406DE02D13002029
:1049B0005C1300204E616D653A25642E7478742D69
:1049C0002D53697A653A25642D2D00000038014089
:1049D0000D0A0000230D0A005401002023456E61DA
:1049E000626C652B4F4B2E2E2E0D0A0023446973EB
:1049F00061626C652B4F4B2E2E2E0D0A00000000BD
:104A0000234F4B0D0A000000901300205801002096
:104A1000232564474325640D0A000000234C503DC4
:104A2000300D0A004C01002064010020234644653B
:104A30006C2B4F4B0D0A000023466F726D61742B77
:104A400053746172740D0A006E01002023466F7268
:104A50006D61742B4F4B0D0A000000002350533240
:104A60002B4F4B2E2E2E0D0A000000004F01002070
:104A700039140020232564502564000000480040BC
:104A8000700100205001002028B3FE48C07A14288D
:104A90001BDAFD480068401CFB49086008460068B6
:104AA000142818DBF748C27AF8A1FB4800F0EEFDA5
:104AB000F949FA48FFF71DF8F248C07A401CF1495D
:104AC000C8720020F049086005E0F548006820F44D
:104AD0008040F3490860F248008800F40040F8B1D3
:104AE000E848C07A14281CDAE7480068401CE64908
:104AF000086008460068052826DBE248037BC27A86
:104B0000E8A1E54800F0C2FDE349E448FEF7F1FF03
:104B1000DC48C07A401CDB49C8720020DA490860D2
:104B200012E0D848027BE2A101A800F0AFFD01A984
:104B3000E448FEF7DEFFDA48006820F40040D84978
:104B400008600020E0490870D548006800F4803013
:104B500088B1FFF7BFFB0120DC4981F82E00FFF789
:104B6000D3FBDBA1D748FEF7C4FFCD48006820F493
:104B70008030CB490860CA48006800F4003088B132
:104B8000FFF7A8FB0020D14981F82E00FFF7BCFBFE
:104B9000D4A1CC48FEF7ADFFC148006820F4003036
:104BA000BF4908600BB030BD10B5D348007800286D
:104BB00042D00020D1490870CF490870D049087010
:104BC000C24890F82C00202825DAFFF7C6FBCD4814
:104BD000006BBE4948620121BC4890F82C20401C63
:104BE0008154C9480078401CC649087008460078BE
:104BF000401CB64981F82C00C448007820F0200001
:104C0000C2490870FFF780FBBE490878FFF7F1FB47
:104C1000FFF7A3FB05E0BD48007840F02000BB494A
:104C20000870BA48007800F0210028B99C48006854
:104C300040F002009A490860B548007800287FD00B
:104C4000AF480078002838D08E480068AD49096B1D
:104C5000884225D29248007800F0400048B1ADA1CA
:104C60009848FEF746FF8E48006820F020008C49E7
:104C700008604FF48071AA4800F028FE814800685F
:104C800001024FF48072A648FDF7EAFFA4498D485F
:104C9000FEF72FFF7B480068401C7A49086009E056
:104CA0007848006818B19FA18648FEF722FF0020CF
:104CB0009349087000207A4908609C4800780028D1
:104CC00024D07748007800F0080028B96D480068C3
:104CD0008C49C96A884277D16A48007A002820DD69
:104CE000684800688749096B884210D265480068A7
:104CF00001024FF480728A48FDF7B2FF01208C490F
:104D0000087060480068401C5E4908605CE07D48AF
:104D1000C06A5C4908600846007A401E087253E089
:104D20000EE00020814908708248007800284BD0AE
:104D300081A16448FEF7DDFE00207E49087043E053
:104D40007F480068002800DA10BD4E48007A00282D
:104D50002ADD5348007800F0080028B94948006867
:104D60006849C96A88422FD1464800686549096B7D
:104D7000884210D24348006801024FF480726848AC
:104D8000FDF76EFF01206A4908703E480068401C2C
:104D90003C49086018E05B48C06A3A490860084628
:104DA000007A401E08720FE036494968654A505C37
:104DB000FFF7F2FA62480068401E61490860314816
:104DC0004068401C2F49486000BFBDE770B55E4891
:104DD0000078002854DD5C480078401E5A4908706D
:104DE00008460078052802DA01205849087058481A
:104DF0000078401C5649087056480078401C5549B8
:104E0000087008460078072801D100200870504833
:104E10000078072802D100204D4908704D490978D3
:104E200001EBC1014C4A32F811108800C11700EBA8
:104E30005171C910494A11800124EEE045480078BB
:104E400000EBC000444901EB400030F81400404939
:104E5000097801EBC101404A02EB410131F814101D
:104E600088420EDD3B49097801EBC10102EB4101AB
:104E700031F81410364A127802EBC202364B6FE05A
:104E8000D4E085E0901300207001002023256450B9
:104E9000554C4B0D0A00000038140020004800401B
:104EA00054010020232564504D4F4425640D0A0011
:104EB00023323535504D4F4425642B304B2E2E2E4A
:104EC0000D0A0000003801404F0100202C13002083
:104ED00023464D51454E41424C452B4F4B2E2E2ED5
:104EE0000D0A000023464D5144495341424C452B85
:104EF0004F4B2E2E2E0D0A004D01002048010020A0
:104F00004B0100205C130020640100205C010020A4
:104F1000340100202353746172740D0A00000000F4
:104F20002812002023456E640D0A00004E01002067
:104F30004C0000204C010020234147460D0A000090
:104F400060010020A0130020300100203701002064
:104F50003101002032010020740000203A010020BD
:104F600003EB420232F81420881A01F0AEF8D24A5C
:104F700003C2D248008801F0BFF805462A460B4616
:104F8000CD4903C900F01CFFCD4A02EBC40203C2A5
:104F9000CC48007800EBC000CB4901EB400030F872
:104FA0001400CA49097801EBC101C74A02EB41016B
:104FB00031F8141088422EDCC449097801EBC10194
:104FC00002EB410131F81410BE4A127802EBC20222
:104FD000BD4B03EB420232F81420881A01F075F839
:104FE000B54A03C2B548008801F086F805462A464E
:104FF0000B46B14903C900F0E3FEB14A02EBC4021B
:1050000003C2AF4800EBC40103C981F00041AC4AC0
:1050100002EBC40203C2601CC4B2092CFFF60EAF3F
:105020000020AB490880AB49087002E00020AA4983
:10503000087070BD2DE9FF5F4FF0000AD346A54808
:105040000078012806D1A4480078012801D1FFF793
:10505000BDFE82E09E480088401C9D4908800846AD
:10506000008896490988884208D101209B49087028
:105070009B48006840F00800994908604FF0010A19
:1050800050E09049097801EBC1018F4A02EB4101E0
:1050900031F81A10934A32F81A20501A002801DB0E
:1050A000014600E04142052910DA0BF1010000F051
:1050B000FF0B8448007800EBC000834901EB4000FF
:1050C00030F81A00874921F81A0027E08048008844
:1050D00001F012F804467A4800EBCA00D0E90063F8
:1050E0003246204601F01CF8804689467749097807
:1050F00001EBC101744A02EB410131F81A0000F0E2
:10510000FBFF42464B46CDE9000100F0B1FDCDE981
:10511000020100F0ADFF734921F81A000AF1010005
:1051200000F0FF0ABAF1090FABDBBBF1080F02D1A7
:1051300001206D4908704FF0000B68480078012885
:105140000BD169480078012807D100206349087015
:105150006549087001205F490870BDE8FF9F10B5E0
:10516000FFF7B8F8FFF7F9F86048002101604160E7
:105170008160C16010BDFEF7E3FAFDF701F901207F
:10518000FEF7FFFB0220FEF7FCFB0320FEF7F9FB16
:10519000FDF7FFFAFDF707FBFDF734FCFEF742FAD7
:1051A000FDF71CFBFEF76EFA4FF4E1315048FEF7B5
:1051B000FFFB4FF4E130FEF71AFCFDF7F5FC03E0CE
:1051C0004CA14B48FEF795FCFDF7CEFC4EF6167150
:1051D0008842F5D1FDF72FFCFEF73DFAFFF7BFFF40
:1051E00017E049480078012804D1FFF723FF002089
:1051F0004549087045480078012804D1FEF74EFD66
:10520000002042490870FFF7CFFCFFF723F9FEF7B3
:1052100055FDE6E710B53E48007801281ED1002074
:105220003B490870FEF770FA3A4908800846008842
:1052300040F6340188420CDB3648008840F6B11154
:10524000884206DC34480068C0433449C1F8B401E0
:1052500004E04FF400513248FBF787FB10BD03E038
:1052600024A12348FEF745FCFDF77EFC4EF616719F
:105270008842F5D12BA11E48FEF73BFC2D48006863
:10528000A0F164010F222C48FDF782FD2BA11848E4
:10529000FEF72FFC27480068A0F164010F222D487B
:1052A000FDF7DEFC2B491248FEF723FC2AA110482B
:1052B000FEF71FFC00BFFEE7400100203A0100207E
:1052C000E011002032010020740000203101002094
:1052D0003C0100203501002038010020750100202C
:1052E00054010020F20000207401002090130020DF
:1052F000003801404E6F7420466F756E642057323F
:10530000355136340D0A0000360100204C000020D3
:105310005B0100206A010020B4812142008021420B
:10532000000C014020466F756E64205732355136AF
:10533000340D0A0060000020F0640008466C6173C0
:105340006820577269746520537563636573730DC4
:105350000A000000B01100200D0A20466C6173683D
:10536000205265616420537563636573730D0A0091
:10537000704700BFFEE700BFFEE700BFFEE700BFCB
:10538000FEE770477047704710B5FEF741FA10BD51
:1053900010B501218807FCF7DAFD48B10121880723
:1053A000FCF7E6FDFDF701F901218807FCF7CCFDCC
:1053B00010BD10B501213148FCF7C9FD38B10121FC
:1053C0002E48FCF7D5FD01218807FCF7BDFD10BD77
:1053D00010B501212A48FCF7BAFD00283DD0012173
:1053E0002748FCF7C5FD27480078401C2549087070
:1053F000084600780A2807D101202349087023496C
:10540000087000201F49087021480078012810D139
:1054100020480078401C1F4908700846007814286E
:1054200007D1002008701C480068C0431B49C1F820
:10543000B8011748007880B919480078401C18490D
:10544000087008460078642807D1002008701248C8
:105450000068C0431149C1F8B80110BD10B5012161
:105460001048FCF774FD38B101210E48FCF780FDAF
:1054700001218807FCF768FD10BD00000004004012
:1054800000080040770100205A0100205B01002045
:105490006E01002079010020B88121420080214264
:1054A00078010020000C00400CB500200190009015
:1054B0006C48006840F480306A49086000BF694861
:1054C000006800F4003000900198401C01900098A2
:1054D00018B90198B0F5A06FF1D16248006800F4E6
:1054E000003010B10120009001E0002000900098F1
:1054F000012843D15C48006840F010005A49086018
:105500000846006820F0030008600846006840F084
:1055100002000860534840685249486008464068A5
:1055200048600846406840F480604860084640682B
:1055300020F47C1048600846406840F4E810486059
:105540000846006840F08070086000BF4548006869
:1055500000F000700028F9D04248406820F00300B5
:10556000404948600846406840F00200486000BF7B
:105570003C48406800F00C000828F9D10CBD10B57B
:10558000FFF792FF10BD10B53648006840F00100EB
:105590003449086008464068344908403149486049
:1055A00008460068324908402E49086008460068ED
:1055B00020F4802008600846406820F4FE0048601F
:1055C0004FF41F008860FFF7DAFF4FF000602949B1
:1055D000086010BD10B5002100200022214B5B683F
:1055E00003F00C0121B1042906D0082928D107E0D5
:1055F000214B224C236027E01F4B204C236023E0EB
:10560000184B5B6803F47010164B5B6803F4803230
:10561000022303EB904022B9194B4343174C2360FC
:105620000DE0104B5B6803F4003323B1144B43438C
:10563000124C236003E0104B4343104C236003E003
:105640000D4B0E4C236000BF00BF064B5B68C3F3DD
:1056500003130C4CE15C094B1B68CB40074C2360E7
:1056600010BD000000100240002002400000FFF8C2
:10567000FFFFF6FE08ED00E000127A007C0100203A
:1056800000093D0080010020704700000FB41CB5E8
:10569000074B06AA7B4469460090059800F0A5F9DF
:1056A0000020694600F0B4F91CBC5DF814FB000052
:1056B000790300002DE9F0410E46044600202062E7
:1056C0002046E168884730B3252805D0D4E9012178
:1056D0009047206A401CF2E7E1682046002788478F
:1056E000050018D0A5F14100192802D820354FF443
:1056F00000673246294620462760FAF751FD40B13F
:10570000012804D0F61D26F007060836D8E7361D16
:10571000D6E72846DAE7206ABDE8F0812DE9F041B6
:105720000646002410687529314616A510D0AFF33F
:105730000080002802DA404213A507E031688A079A
:1057400001D512A502E0490704D511A5012401E005
:10575000AFF3008000210A2206F1240709E0B0FB24
:10576000F2FCB0FBF2F302FB1C0030307854184618
:10577000491C0028F3D123462A463046BDE8F041B3
:1057800000F0D4B8000000002D0000002B00000045
:105790002000000070B5064600F0C4F80468054615
:1057A00030460A22002100F038F92C6070BD401EFE
:1057B000CAB210F8011F8A4202D00029F9D1002094
:1057C000704730B505460B462A4613F8014B12F8D0
:1057D000010B08B1A042F8D01CB1002802D06D1C0A
:1057E000F1E7284630BD10B5431C02E010F8011B5C
:1057F00071B18107FAD14FF0013202C88C1A8C4383
:1058000014EAC211F9D0C01A0A0603D0C01E10BD96
:10581000C01A10BD0A0401D0801E10BD0902FCD0C0
:10582000401E10BD10B5203AC0F00B80B1E81850F2
:10583000203AA0E81850B1E81850A0E81850BFF47A
:10584000F5AF5FEA027C24BFB1E81850A0E8185019
:1058500044BF18C918C0BDE810405FEA827C24BF6D
:1058600051F8043B40F8043B08BF7047D20728BFFB
:1058700031F8023B48BF11F8012B28BF20F8023B4A
:1058800048BF00F8012B70474FF000020429C0F018
:10589000128010F0030C00F01B80CCF1040CBCF162
:1058A000020F18BF00F8012BA8BF20F8022BA1EBB4
:1058B0000C0100F00DB85FEAC17C24BF00F8012B99
:1058C00000F8012B48BF00F8012B70474FF0000291
:1058D00000B5134694469646203922BFA0E80C50E6
:1058E000A0E80C50B1F12001BFF4F7AF090728BFC1
:1058F000A0E80C5048BF0CC05DF804EB890028BF3D
:1059000040F8042B08BF704748BF20F8022B11F065
:10591000804F18BF00F8012B7047704770477047E1
:1059200070470000004870476C1400202DE9F047D4
:105930000D4699469246044600F1240801688806FF
:1059400004D5E06921F01001216000E00120A842A7
:1059500001DD471B00E00027A1697A1902EB09006D
:10596000081AA0612078C00602D42046AFF3008058
:10597000002608E0D4E901211AF806009047206AC1
:10598000401C761C20624E45F4DB2078C0060AD508
:105990002046AFF3008006E0D4E901213020904793
:1059A000206A401C2062381EA7F10107F4DC07E0E2
:1059B000D4E9012118F805009047206A401C2062B4
:1059C000281EA5F10105F3DC2046AFF30080207806
:1059D000000602D50220BDE8F0870120FBE70000A9
:1059E00001694A1C02610878704700B58FB0CDE9A3
:1059F00001310021059105497944CDE90310114693
:105A00006846FFF757FE0FB000BD0000E5FFFFFF3F
:105A10000A6802F8010B0A6070472DE9F0479146C9
:105A20000F4680460446002614F8015B2DB100F0B5
:105A300031F80068405DC007F6D12B2D02D02D2D26
:105A400018D0641E4A463946204600F02BF827B18C
:105A50003968A14201D1C7F800804FF002047105F6
:105A60000BD54042002803DDFFF75CFF0460A00770
:105A7000BDE8F08746F48066E4E70028F8DAFFF72F
:105A800051FF04606FF00040F2E7000000487047EB
:105A90006C14002010B500F079F8001D10BD00BF97
:105AA000A50100002DE9F05F824615468B460027D0
:105AB0000AF10104B9460078302801D09DB113E005
:105AC00014F8010B0127782803D0582801D045B1DC
:105AD0000AE00DB1102D07D1002714F8010B102595
