:020000040800F2
:10000000F01A0020E5010008E14E0008E34E000868
:10001000E74E0008EB4E0008EF4E0008000000001D
:10002000000000000000000000000000F34E000887
:10003000F54E000800000000F74E0008F94E0008D9
:10004000FF010008FF010008FF010008FF01000890
:10005000FF010008FF010008FF010008FF01000880
:10006000FF010008FF010008FF010008FF01000870
:10007000FF010008FF010008FF010008FF01000860
:10008000FF010008FF010008FF010008FF01000850
:10009000FF010008FF010008FF010008FF01000840
:1000A000FF010008FF010008FF010008FF01000830
:1000B000014F0008234F0008414F0008FF010008CE
:1000C000FF010008FF010008FF010008FF01000810
:1000D000FF010008D13C0008953D0008273E0008BC
:1000E000FF010008FF010008FF01000800F002F80E
:1000F00000F068F80AA090E8000C82448344AAF15A
:100100000107DA4501D100F05DF8AFF2090EBAE857
:100110000F0013F0010F18BFFB1A43F0010318473B
:100120009C5F0000BC5F00000A444FF0000C10F818
:10013000013B13F0070408BF10F8014B1D1108BF65
:1001400010F8015B641E05D010F8016B641E01F805
:10015000016BF9D113F0080F1EBF10F8014BAD1C55
:100160000C1B09D16D1E58BF01F801CBFAD505E073
:1001700014F8016B01F8016B6D1EF9D59142D6D3CD
:10018000704700000023002400250026103A28BFF5
:1001900078C1FBD8520728BF30C148BF0B607047F9
:1001A000642905F07B80002070471FB505F0CCFA6C
:1001B00004000020002105F023FB401C60601FBDEF
:1001C00010B510BD05F09BFA1146FFF7EEFF04F0E5
:1001D000BEFD05F0CBFA03B4FFF7F2FF03BC03F05A
:1001E000CBFB00000948804709480047FEE7FEE7CF
:1001F000FEE7FEE7FEE7FEE7FEE7FEE7FEE7FEE7D7
:1002000004480549054A064B70470000075100089D
:10021000ED000008F0140020F01A0020F016002075
:10022000F016002031490143314A1160704770B522
:10023000002100230F22C47804B32D4C246804F459
:10024000E064C4F5E064210AC1F10403CA404478C3
:1002500004FA03F18478144021430901254C0678FF
:10026000A155047804F01F050124AC4005786D11F8
:10027000AD0005F1E025C5F8004109E0047804F07F
:100280001F050124AC401C4D0678761145F8264028
:1002900070BD1A4A0A400243154B1B1F1A60704773
:1002A00039B1134A121D12680243114B1B1D1A600B
:1002B00006E00F4A121D126882430D4B1B1D1A6087
:1002C0007047042808D14FF0E021096941F004018A
:1002D0004FF0E022116107E04FF0E021096921F0C1
:1002E00004014FF0E0221161704700000000FA05A0
:1002F0000CED00E000E400E080E100E080FFFF1F83
:1003000010B50446FA48844208D10121401500F096
:1003100055FD0021601500F051FD17E0F5488442BD
:1003200008D10121001500F049FD0021201500F041
:1003300045FD0BE0F048844208D10121C80300F0DC
:100340003DFD00214FF4004000F038FD10BD30B5F8
:100350000246002000235068E84C20400D790C68CC
:1003600044EA0524204350609068E54C2040D1E9E0
:1003700002542C434D7944EA450420439060D06AEE
:1003800020F470000C7C641EE4B2234340EA035066
:10039000D06230BD00210160017141718160C16096
:1003A00001210174704721B1826842F0010282602C
:1003B00003E0826822F001028260704721B1826806
:1003C00042F48072826003E0826822F4807282606C
:1003D000704710B50023CBB21AB144681C43446087
:1003E00002E044689C43446010BD816841F008010C
:1003F00081607047014600208A6802F008020AB155
:10040000012000E000207047816841F00401816014
:100410007047014600208A6802F004020AB10120F8
:1004200000E00020704721B1826842F4A00282609F
:1004300003E0826822F4A002826070470146002037
:100440008A6802F480020AB1012000E000207047AF
:1004500010B50A4600210023416821F46041531E73
:1004600041EA4331416010BD21B1426842F400626B
:10047000426003E0426822F4006242607047F0B5D7
:1004800004460D4600200021092D11DDE068A5F18C
:100490000A0606EB4607072606FA07F18843A5F188
:1004A0000A0606EB460603FA06F10843E0600CE094
:1004B000206905EB4507072606FA07F1884305EB97
:1004C000450603FA06F108432061072A0FDA606B3C
:1004D000561E06EB86071F2606FA07F18843561EAE
:1004E00006EB860605FA06F10843606322E00D2A52
:1004F0000FDA206BD61F06EB86071F2606FA07F1D8
:100500008843D61F06EB860605FA06F108432063EA
:1005100010E0E06AA2F10D0606EB86071F2606FA38
:1005200007F18843A2F10D0606EB860605FA06F1EF
:100530000843E062F0BD21B1826842F4801282601B
:1005400003E0826822F48012826070470146C86C22
:1005500080B2704766484C300068704721B14268ED
:1005600042F48062426003E0426822F480624260AA
:10057000704721B1426842F48052426003E0426811
:1005800022F48052426070470A460021816821F4BB
:10059000E04111438160704721B1826842F400421A
:1005A000826003E0826822F400428260704721B1D9
:1005B000826842F40212826003E0826822F402122E
:1005C00082607047014600208A6802F400120AB176
:1005D000012000E000207047F0B5044615460020D9
:1005E00000220026092911DDE068A1F10A0707EBC6
:1005F000470C072707FA0CF29043A1F10A0707EB13
:10060000470703FA07F21043E0600CE0206901EBB2
:10061000410C072707FA0CF2904301EB410703FA5C
:1006200007F210432061A06BC0F30156EF1C06F1E6
:10063000010CA7EB0C0707EB870C1F2707FA0CF23E
:100640009043EF1C06F1010CA7EB0C0707EB8707A3
:1006500001FA07F21043A063F0BD10B50A4600216D
:100660000023816B21F44011531E41EA0351816341
:1006700010BD08B5002300930090009B0B4400932D
:10068000009B1A6008BD08B5024600200090009249
:1006900001F12800009B184400900098006880B287
:1006A00008BD0A4600214168164B194011434160BC
:1006B00070474162826270470A460021416821F01A
:1006C0001F0111434160704740B109490831096871
:1006D00041F40001064A0832116007E0044908317C
:1006E000096821F40001024A0832116070470000D5
:1006F0000024014000280140003C0140FFFEF0FFC3
:10070000FDF7F1FFFFFD3FFF0246002013680B409D
:100710000BB1012000E000207047CA43026070471F
:1007200070B502460020002300240B125568CEB29B
:1007300005EA060415681D4015B10CB1012000E062
:10074000002070BD00220A12D343036070470000EE
:1007500010B50446CC48844208D10121042000F0A1
:100760002DFB0021042000F029FB46E0C74884420D
:1007700008D10121082000F021FB0021082000F011
:100780001DFB3AE0C248844208D10121102000F04C
:1007900015FB0021102000F011FB2EE0BD48844223
:1007A00008D10121202000F009FB0021202000F0C9
:1007B00005FB22E0B848844208D10121402000F026
:1007C000FDFA0021402000F0F9FA16E0B348844217
:1007D00008D10121802000F0F1FA0021802000F0F2
:1007E000EDFA0AE0AE48844207D10121801500F0FD
:1007F000E5FA0021A01500F0E1FA10BD10B50121C5
:10080000084600F0DBFA0021012000F0D7FA10BD05
:100810002DE9F04102460025002600200023002497
:10082000002791F803C00CF00F0591F803C00CF0FD
:10083000100CBCF1000F03D091F802C04CEA050582
:1008400091F800C0BCF1000F31D0146800202BE0FB
:100850004FF0010C0CFA00F3B1F800C00CEA0306EB
:100860009E4220D183004FF00F0C0CFA03F7BC43DB
:1008700005FA03FC4CEA040491F803C0BCF1280F0C
:1008800006D14FF0010C0CFA00FCC2F814C00AE0CB
:1008900091F803C0BCF1480F05D14FF0010C0CFAE0
:1008A00000FCC2F810C0401C0828D1D31460B1F875
:1008B00000C0BCF1FF0F34DD546800202EE000F1D1
:1008C000080C4FF0010808FA0CF3B1F800C00CEA6C
:1008D00003069E4221D183004FF00F0C0CFA03F760
:1008E000BC4305FA03FC4CEA040491F803C0BCF1D4
:1008F000280F05D100F1080C08FA0CF8C2F8148092
:1009000091F803C0BCF1480F07D100F1080C4FF07B
:10091000010808FA0CF8C2F81080401C0828CED351
:100920005460BDE8F0814FF6FF71018002218170B3
:100930000421C17070470246002093680B400BB140
:10094000012000E0002070470146886880B27047AF
:1009500002460020D3680B400BB1012000E00020CC
:1009600070470146C86880B27047016170474161B5
:1009700070470AB1016100E041617047C160704792
:100980004FF480320A4382618161826182698269A7
:10099000704702460020434B18684FF6807318409A
:1009A00040EA021008433F4B186070473E49C86157
:1009B0007047F0B50A46002300240021002500F00E
:1009C0000046B6F1004F02D1364EF16901E0354ED6
:1009D0007168C0F3034583B200F44016B6F5401FBA
:1009E00008D121F070612F4E766826F070662D4F89
:1009F0007E6012E000F48016B6F5801F06D1032653
:100A000006FA05F4A14341F0706106E0460D360197
:100A100003FA06F6B14341F0706122B1460D36018A
:100A200003FA06F6314300F00046B6F1004F02D15A
:100A30001C4EF16101E01B4E7160F0BD30B500222B
:100A40008B071C0F0F2303FA04F2164B08338C108C
:100A500053F824309343134C08348D1044F8253058
:100A600023468C1053F824308C07240F00FA04F42A
:100A700023430C4C08348D1044F8253030BD0A490E
:100A8000DC3108607047000000080140000C0140A4
:100A9000001001400014014000180140001C0140FA
:100AA000002001400000014000002042DF480068B3
:100AB00040F00100DD49086008464068DC49084014
:100AC000DA49486008460068DA490840D7490860B2
:100AD0000846006820F4802008600846406820F43A
:100AE000FE0048604FF41F0088607047CF490968D6
:100AF00021F48031CD4A11601146096821F480212A
:100B00001160B0F5803F03D0B0F5802F0ED106E024
:100B1000C649096841F48031C44A116007E0C349FD
:100B2000096841F4A021C14A116000E000BF00BF84
:100B3000704710B501460022002300204A11012A07
:100B400002D1BA4C236806E0022A02D1B74C236ACC
:100B500001E0B64C636A01F01F02012494401C407E
:100B60000CB1012000E0002010BD38B5002000903D
:100B70000024002500BF3120FFF7DBFF0546009869
:100B8000401C00900098B0F5A06F01D0002DF2D06D
:100B90003120FFF7CEFF08B1012400E000242046F9
:100BA00038BD01460020A14A106820F0F80040EA54
:100BB000C10010607047A0490860704702460020DD
:100BC0009A4B586820F47C1042EA01031843974B73
:100BD0005860704798490866704701460020934A5C
:100BE000506820F003000843506070478F48406809
:100BF00000F00C007047014600208C4A506820F03D
:100C0000F00008435060704701460020874A506852
:100C100020F4E06008435060704701460020834A9A
:100C2000506820F4605040EAC1005060704729B11C
:100C30007E4A527A02437D4B5A7204E07B4A527AD2
:100C400082437A4B5A7270477B49D83108607047AB
:100C500001460020754A506820F440400843506027
:100C600070470021714A20321170704A82F82010BA
:100C7000012802D004280AD104E001216B4A203265
:100C8000117005E00521694A2032117000E000BFB3
:100C900000BF70476949086070476449096A0143A9
:100CA000624A11627047654944390860704730B53F
:100CB00000210022002400235C4D6D6805F00C012A
:100CC00021B1042905D0082923D105E05C4D056038
:100CD00022E05B4D05601FE0544D6D6805F4701215
:100CE000524D6D6805F48034022505EB92421CB923
:100CF000544D554305600BE04C4D6D6805F40035CF
:100D00001DB1504D5543056002E04D4D5543056002
:100D100002E04B4D056000BF00BF444D6D6805F01B
:100D2000F0010909484D6B5C0568DD4045603F4DA9
:100D30006D6805F4E061090A434D6B5C4568DD4070
:100D400085603A4D6D6805F46051C90A3E4D6B5C93
:100D50004568DD40C560354D6D6805F44041890B3F
:100D60003A4D6B5CC568B5FBF3F5056130BD29B143
:100D70002E4A526902432D4B5A6104E02B4A5269B4
:100D800082432A4B5A61704729B1284A926902432B
:100D9000264B9A6104E0254A92698243234B9A616B
:100DA000704729B1214AD2690243204BDA6104E03D
:100DB0001E4AD26982431D4BDA61704729B11B4A32
:100DC000D2680243194BDA6004E0184AD2688243C1
:100DD000164BDA60704729B1144A12690243134B6B
:100DE0001A6104E0114A12698243104B1A6170477C
:100DF00012494039086070470F49C86470470B4971
:100E0000C87170470948406A40F0807007494862DD
:100E1000704701460020054A92680A400AB1012045
:100E200000E00020704701498872704700100240BE
:100E30000000FFF8FFFFF6FE00004242800442423D
:100E400000127A0000093D00000000201000002080
:100E500010B50446BE48844208D101218014FFF732
:100E6000ADFF0021A014FFF7A9FF16E0B9488442A6
:100E700008D101210014FFF7AEFF00212014FFF775
:100E8000AAFF0AE0B448844207D10121C013FFF74A
:100E9000A2FF0021E013FFF79EFF10BD10B5002256
:100EA000028802F441520B884C8823438C882343E8
:100EB000CC8823430C8923434C8923438C892343C7
:100EC000CC8923431A430280838B4FF2FF74234063
:100ED00083830B8A038210BD2DE9F04F85B0054650
:100EE0000C464FF0000902274FF000084FF0010BAD
:100EF0000026B246A88B4FF240010840A88302208A
:100F00002884B5F81C90A068022801D100BF38E001
:100F1000A08810B94FF0010B01E04FF0020B8D4893
:100F2000854200D100E000BF6846FFF7C0FEDDF853
:100F300000A0E088B0F5007F0AD14FEA1A2000EB4C
:100F400080004000A168B0FBF1F0401D86B20BE0CC
:100F50004FEA4B10BAFBF0F000EB80004000A168B4
:100F6000B0FBF1F0401D86B20A20B6FBF0F606F0A9
:100F70000108A6EB0800C0F34F074FF6FF7000EA28
:100F80000828022F01DBFF2F02DD02274FF00008A7
:100F9000E08840EA080038432884A088A1890843F3
:100FA000618808432188084340F4006040EA090949
:100FB000A5F81C9005B0BDE8F08F002101804180AC
:100FC0008180C180018141818181C18107210182AC
:100FD00070470021018041808180C18002218160B1
:100FE00000218181704721B1028842F040020280D5
:100FF00004E002884FF6BF731A400280704721B1A7
:10100000828B42F48062828304E0828B4FF6FF334E
:101010001A408283704730B5002400230C1101254B
:10102000A540ABB21AB185881D43858002E0858852
:101030009D43858030BD1AB183880B43838002E0D5
:1010400083888B43838070478181704701468889FC
:1010500070474FF6FF62914204D0028842F48072DA
:10106000028004E002884FF6FF631A400280704756
:1010700021B1828842F00402828004E082884FF627
:10108000FB731A408280704702884FF2FF731A4048
:10109000028002880A4302807047018841F480512F
:1010A0000180704721B1028842F40052028004E0BE
:1010B00002884DF6FF731A400280704702460020F6
:1010C000012901D0108B00E0908A70470146088A00
:1010D0007047B1F5804F04D1028842F4804202800B
:1010E00004E002884BF6FF731A4002807047024604
:1010F000002013890B400BB1012000E00020704755
:10110000CA4302817047F0B5024600200024002344
:10111000002501F00F070126BE40B4B20B110126D5
:101120009E40B3B2968806EA03051689264016B19A
:101130000DB1012000E00020F0BD10B5002201F04B
:101140000F040123A3409AB2D343038110BD0000D2
:101150000030014000380040003C004010B504461B
:10116000FE48844208D10121C014FFF727FE002168
:10117000E014FFF723FEC4E0B4F1804F08D1012151
:101180000846FFF728FE00210120FFF724FEB8E003
:10119000F348844208D101210220FFF71CFE002100
:1011A0000220FFF718FEACE0EE48844208D101218E
:1011B0000420FFF710FE00210420FFF70CFEA0E042
:1011C000E948844208D101210820FFF704FE0021EC
:1011D0000820FFF700FE94E0E448844208D1012192
:1011E0001020FFF7F8FD00211020FFF7F4FD88E044
:1011F000DF48844208D101212020FFF7ECFD0021C7
:101200002020FFF7E8FD7CE0DA48844208D1012184
:101210004014FFF7D3FD00216014FFF7CFFD70E00D
:10122000D548844209D10121C804FFF7C7FD002138
:101230004FF40020FFF7C2FD63E0D048844209D19B
:1012400001210805FFF7BAFD00214FF48010FFF7D8
:10125000B5FD56E0CA48844209D101214805FFF78F
:10126000ADFD00214FF40010FFF7A8FD49E0C5488F
:10127000844208D101214020FFF7ADFD002140202C
:10128000FFF7A9FD3DE0C048844208D1012180203C
:10129000FFF7A1FD00218020FFF79DFD31E0BB4855
:1012A000844208D101218015FFF795FD0021A0158A
:1012B000FFF791FD25E0B648844209D101210804D9
:1012C000FFF77CFD00214FF48030FFF777FD18E039
:1012D000B048844209D101214804FFF76FFD002185
:1012E0004FF40030FFF76AFD0BE0AB48844208D1B1
:1012F00001218804FFF762FD00214FF48020FFF7F1
:101300005DFD10BD00220288944B98420ED0994B8F
:1013100098420BD0B0F1804F08D0914B984205D045
:10132000904B984202D0904B984204D14FF68F7365
:101330001A404B881A438D4B984207D08C4B9842E9
:1013400004D04FF6FF431A40CB881A4302808B88A3
:1013500083850B880385814B98420BD0854B98423F
:1013600008D08B4B984205D08A4B984202D08A4BCA
:10137000984201D10B7A038601238382704770B5AE
:10138000002400220023058C4FF6FE7635400584AC
:10139000028C8388048B4FF68F752C40B51E2C4031
:1013A0000D882C43751E2A400D892A434D882A43F7
:1013B0006A4DA8420BD06F4DA84208D0744DA84288
:1013C00005D0744DA84202D0734DA84213D14FF6F8
:1013D000F7752A404D892A434FF6FB752A408D88C0
:1013E0002A434FF6FF652B404FF6FF552B408D8962
:1013F0002B43CD892B4383800483CD88858602844B
:1014000070BD70B5002400220023058C4FF6EF76E6
:1014100035400584028C8388048B48F6FF752C4088
:101420004FF6FF452C400D884FF6FF7606EA05255E
:101430002C434FF6DF752A400D8906EA05152A432D
:101440004D8806EA05152A43444DA84202D0494D6D
:10145000A8421DD14FF67F752A404D894FF6FF7681
:1014600006EA05152A434FF6BF752A408D8806EA1D
:1014700005152A434FF6FF352B404FF2FF752B40E1
:101480008D8906EA85052B43CD8906EA85052B4320
:1014900083800483CD880587028470BD70B50024E5
:1014A00000220023058C4FF6FF6635400584028C30
:1014B0008388848B4FF68F752C404FF6FC752C403B
:1014C0000D882C434FF6FF552A400D894FF6FF76C5
:1014D00006EA05252A434D8806EA05252A431F4DBD
:1014E000A84202D0234DA8421DD14FF2FF752A40D9
:1014F0004D894FF6FF7606EA05252A434FF6FF355C
:101500002A408D8806EA05252A434EF6FF752B40B2
:101510004DF6FF752B408D8906EA05152B43CD89C5
:1015200006EA05152B4383808483CD888587028452
:1015300070BD70B5002200230024058C4EF6FF76A6
:1015400035400584038C8488828B48F6FF752A40D9
:101550004FF6FF452A400D8820E00000002C014096
:101560000004004000080040000C00400010004053
:101570000014004000340140004C01400050014084
:101580000054014000180040001C004000200040B2
:101590000040014000440140004801404FF6FF7602
:1015A00006EA05252A434DF6FF752B400D8906EA0C
:1015B00005352B434D8806EA05352B43FA4DA842E5
:1015C00002D0FA4DA84208D14BF6FF752C408D8908
:1015D0004FF6FF7606EA85152C4384808283CD88FA
:1015E000A0F84050038470BD828B4FF2FF331A4045
:1015F0008283828B4FF6FF7303EA01231A438283AF
:101600007047F0B50C461546002200210026078CD5
:101610004EF6FF7C07EA0C070784828B018C4FF69D
:10162000FF7707EA043640F6FF473A404FF6FF7768
:1016300007EA05273A434FF6FF7707EA03373A43AD
:10164000D94FB8420ED0D94FB8420BD0B0F1804F2D
:1016500008D0D74FB84205D0D64FB84202D0D64FA7
:10166000B84206D14DF6FF77394046F480573943EA
:1016700005E047F6FF57394044F4805739438283E9
:101680000184F0BD828B4FF6F3731A408283828B04
:101690000A4382837047F0B50C46154600220021AC
:1016A0000026078C4FF6FF6C07EA0C070784828B35
:1016B000018C4FF6FF7707EA04264FF60C773A4085
:1016C0004FF6FF7707EA03172F433A43B64FB84266
:1016D0000ED0B64FB8420BD0B0F1804F08D0B44F07
:1016E000B84205D0B34FB84202D0B34FB84206D18A
:1016F0004FF6FF57394046F48077394305E04FF203
:10170000FF57394044F48077394382830184F0BD28
:10171000028B4FF2FF331A400283028B4FF6FF73A6
:1017200003EA01231A4302837047F0B50C461546BD
:10173000002200210026078C4FF6EF7C07EA0C07F9
:101740000784028B018C4FF6FF7707EA041640F6F8
:10175000FF473A404FF6FF7707EA03373A434FF621
:10176000FF7707EA05273A438F4FB8420ED08F4FD5
:10177000B8420BD0B0F1804F08D08D4FB84205D0A1
:101780008C4FB84202D08C4FB84206D14FF6DF776B
:10179000394046F01007394305E04FF65F7739408E
:1017A00044F01007394302830184F0BD028B4FF6E9
:1017B000F3731A400283028B0A4302837047F0B529
:1017C0000C46154600220021068C4FF6FE773E405F
:1017D0000684028B018C4FF60C7632407E1C06EAA2
:1017E00003162E433243704EB0420ED06F4EB042BD
:1017F0000BD0B0F1804F08D06D4EB04205D06D4E89
:10180000B04202D06C4EB04206D14FF6FD76314068
:1018100044F00106314305E04FF6F576314044F0DF
:101820000106314302830184F0BD70B505460C46C4
:101830005D4885420ED05D4885420BD0B5F1804FA2
:1018400008D05B48854205D05A48854202D05A48A4
:10185000854200D100E000BF208850B92389A288CA
:1018600061882846FFF7ABFFE1882846FFF79EFF17
:1018700025E0208804280AD12389A2886188284687
:10188000FFF753FFE1882846FFF742FF17E0208863
:1018900008280AD12389A28861882846FFF7FBFE21
:1018A000E1882846FFF7EEFE09E02389A2886188D7
:1018B0002846FFF7A6FEE1882846FFF795FE70BD93
:1018C0002DE9F04105460C4600260127608808B93D
:1018D000022600E00026A088012801D1022700E0AE
:1018E00001272088A0B92389A28861882846FFF7AC
:1018F00066FFE1882846FFF759FF23893A463146BB
:101900002846FFF712FFE1882846FFF701FF13E0A2
:101910002389A28861882846FFF707FFE1882846C7
:10192000FFF7F6FE23893A4631462846FFF747FF80
:10193000E1882846FFF73AFFBDE8F0810A884B8826
:101940001A438B881A43CB881A430B891A434B8955
:101950001A438B891A43A0F8442070474FF6FF7151
:10196000818000210180C180418001727047002187
:10197000018041808180C180018141818181C1815B
:101980007047002101804180012181800021C180B8
:10199000018170470021018041808180C1800181E7
:1019A0004181818170470000002C014000340140DA
:1019B0000004004000080040000C004021B10288F3
:1019C00042F00102028004E002884FF6FE731A40E2
:1019D0000280704731B1B0F8442042F40042A0F8D0
:1019E000442005E0B0F84420C2F30E02A0F84420E1
:1019F00070471AB183890B43838102E083898B434B
:101A0000838170478182704741EA0203A0F8483021
:101A100070471AB183890B43838102E083898B432A
:101A20008381704701894FF6F87211400181704738
:101A30000A46002101894FF68F7319401143018135
:101A4000704730B504460D4629462046FFF7F0FFA3
:101A5000208940F00700208130BD2DE9F041044687
:101A60000D4616461F46602D06D13B4601223146E3
:101A70002046FFF75AFE05E03B460122314620464C
:101A8000FFF79DFE29462046FFF7D2FF208940F050
:101A900007002081BDE8F08130B50C4600210189A6
:101AA000C9B24FF6FF7505EA0325154325432943BF
:101AB000018130BD2DE9F04105460E461746984696
:101AC000002443463A4631462846FFF7E5FF2C8975
:101AD0004FF6F870044044F007044FF68F7004404E
:101AE00044F070042C81BDE8F081F0B504460D4649
:101AF00016461F463B46324629462046FFF7CCFF96
:101B0000208940F480402081F0BD018582827047A9
:101B10000A46002101884FF68F7319401143018056
:101B20007047F0B50C4615461E46002100220023E2
:101B30000189028B038C4FF6F877394021434FF629
:101B4000FC473A4040F201173A434FF6DD773B40FD
:101B50004FF6FF7707EA06172F433B4301810283C5
:101B60000384F0BD0A460021018B4FF68F731940A4
:101B70001143018370470A460021018B48F6FF7329
:101B800019404FF6FF7303EA02231943018370479C
:101B90000A460021818B4FF68F73194011438183D0
:101BA00070470A460021818B48F6FF7319404FF6B3
:101BB000FF7303EA022319438183704721B102882E
:101BC00042F08002028004E002884FF67F731A40E0
:101BD0000280704721B1828842F00402828004E0D2
:101BE00082884FF6FB731A408280704721B1828849
:101BF00042F00802828004E082884FF6F7731A40B0
:101C00008280704721B1828842F00102828004E024
:101C100082884FF6FE731A40828070470A46002180
:101C2000018B4FF6F77319401143018370470A4641
:101C30000021018B4FF2FF7319404FF6FF7303EA47
:101C400002231943018370470A460021818B4FF616
:101C5000F77319401143818370470A460021818B35
:101C60004FF2FF7319404FF6FF7303EA0223194343
:101C7000818370470A460021018B4FF6FB731940A0
:101C80001143018370470A460021018B4FF6FF3351
:101C900019404FF6FF7303EA02231943018370478B
:101CA0000A460021818B4FF6FB7319401143818353
:101CB00070470A460021818B4FF6FF3319404FF6DB
:101CC000FF7303EA02231943818370470A46002108
:101CD000018B4FF67F7319401143018370470A4609
:101CE0000021018BC1F30E014FF6FF7303EA0223BB
:101CF0001943018370470A460021818B4FF67F7399
:101D000019401143818370470A460021818BC1F33A
:101D10000E014FF6FF7303EA0223194381837047D4
:101D20000A460021018C4FF6FD73194011430184CE
:101D300070470A460021018C4FF6F7731940114392
:101D4000018470470A460021018C4FF6DF73194069
:101D50004FF6FF7303EA02131943018470470A46E2
:101D60000021018C4FF67F7319404FF6FF7303EA91
:101D700002131943018470470A460021018C4FF673
:101D8000FF5319404FF6FF7303EA022319430184FE
:101D900070470A460021018C4FF2FF7319404FF63D
:101DA000FF7303EA02231943018470470A460021A6
:101DB000018C4DF6FF7319404FF6FF7303EA0233AF
:101DC00019430184704730B5002301248C40A3B22D
:101DD000048C9C430484048C02FA01F5ADB22C43BC
:101DE000048430BD30B5002304248C40A3B2048C9D
:101DF0009C430484048C02FA01F5ADB22C430484A4
:101E000030BD70B503460020002418461830012567
:101E10008D40ACB21D8CA5431D8409B1082909D1A0
:101E200000EB6100056825F0700505600568154345
:101E300005600EE00D1FC5F34E052844056825F426
:101E4000E045056005684FF6FF7606EA0226354351
:101E5000056070BD21B1028842F00202028004E0F8
:101E600002884FF6FD731A400280704721B1028844
:101E700042F00402028004E002884FF6FB731A402D
:101E80000280704721B1828842F08002828004E0A3
:101E900082884FF67F731A408280704702884FF61F
:101EA000F7731A40028002880A43028070478288D2
:101EB0004FF68F731A40828082880A43828070476F
:101EC00002894FF6F8731A40028102890A4302819F
:101ED000704702894FF67F731A40028102890A43D4
:101EE0000281704781847047818570478186704781
:101EF0000187704781877047A0F8401070470288BB
:101F00004FF6FF431A40028002880A43028070475E
:101F10000146888E70470146088F70470146888FBA
:101F200070470146B1F8400070470146888C704701
:101F30000146088D704702460020138A0B400BB102
:101F4000012000E000207047CA430282704730B58C
:101F50000246002000230024158A05EA0103958922
:101F600005EA010413B10CB1012000E0002030BDEE
:101F7000CA4302827047000010B50446FB48844201
:101F800009D101218803FEF719FF00214FF4804099
:101F9000FEF714FF32E0F648844209D101214804DB
:101FA000FEF719FF00214FF40030FEF714FF25E083
:101FB000F048844209D101218804FEF70CFF00217A
:101FC0004FF48020FEF707FF18E0EB48844209D168
:101FD0000121C804FEF7FFFE00214FF40020FEF7A8
:101FE000FAFE0BE0E548844208D101210805FEF71E
:101FF000F2FE00214FF48010FEF7EDFE10BD2DE93A
:10200000F04786B005460E460024A24600BFA14612
:102010000027B08900B100BF2F462C8A4CF6FF7014
:102020000440F08804432C82AC894EF6F31004403F
:10203000B08831890843718908430443AC81AC8A74
:102040004FF6FF400440B0890443AC8201A8FEF77C
:102050002EFEC648874202D1DDF810A001E0DDF86F
:102060000CA0A88900F4004040B10AEBCA0000EBC4
:102070000A1031684900B0FBF1F807E00AEBCA002A
:1020800000EB0A1031688900B0FBF1F86420B8FB5E
:10209000F0F004012009642101FB1089A88900F4F3
:1020A000004040B1322000EBC900B0FBF1F000F07D
:1020B0000700044308E0322000EB09106421B0FB64
:1020C000F1F000F00F0004432C8106B0BDE8F0876A
:1020D0004FF41651016000218180C18001810C21E3
:1020E000418100218181704710B502460020108A8D
:1020F0004FF2FF0318400B884C8823438C882343FE
:10210000CC8823431843108210BD002101804180F8
:102110008180C180704721B1828942F4005282815E
:1021200004E082894DF6FF731A4082817047F0B552
:102130000346002400260025002040F66A17B94215
:1021400000D100BF1846C1F3421401F01F06012759
:1021500007FA06F5012C01D10C3004E0022C01D164
:10216000103000E014301AB107682F43076002E016
:102170000768AF430760F0BD1AB1838A0B438382BF
:1021800002E0838A8B4383827047028A4FF6F073A2
:102190001A400282028A0A430282704782894FF201
:1021A000FF731A40828182890A438281704721B17C
:1021B000828942F00202828104E082894FF6FD7337
:1021C0001A4082817047028A4FF6DF731A400282FA
:1021D000028A0A430282704721B1028A42F4804295
:1021E000028204E0028A4BF6FF731A4002827047B3
:1021F000C1F308028280704701468888C0F3080056
:102200007047818941F0010181817047028BD2B210
:102210000283028B42EA012202837047028B02F49E
:102220007F420283028B0A430283704721B1828A74
:1022300042F02002828204E0828A4FF6DF731A4065
:102240008282704721B1828A42F01002828204E0C9
:10225000828A4FF6EF731A408282704721B1828AD8
:1022600042F00802828204E0828A4FF6F7731A4035
:102270008282704721B1828942F40042828103E068
:102280008289C2F30E028281704721B1828A42F4B0
:102290000062828204E0828A4FF2FF731A408282D7
:1022A0007047828A4FF6FB731A408282828A0A4301
:1022B0008282704721B1828A42F00202828204E067
:1022C000828A4FF6FD731A408282704702460020D0
:1022D000B1F5007F00D100BF13880B400BB1012086
:1022E00000E00020704701F40072B2F5007F00D1D9
:1022F00000BFCA430280704770B502460024002325
:102300000025002040F66A16B14200D100BFC1F39B
:10231000421501F01F03012606FA03F3012D02D135
:102320009689334006E0022D02D1168A334001E03F
:10233000968A33400C12012606FA04F416883440BB
:1023400013B10CB1012000E0002070BD10B50022D7
:10235000002340F66A14A14200D100BF0A120124F2
:102360009440A3B2DC43048010BD0000003801405B
:102370000044004000480040004C00400050004035
:1023800008B501210520FEF7FFFC01217348FEF787
:1023900010FB01217248FEF70CFB4FF40140ADF831
:1023A000000003208DF8020010208DF8030069461C
:1023B0006C48FEF72DFA01210920FEF7E5FC48F2F2
:1023C0003800ADF8000003208DF8020010208DF8D1
:1023D000030069466448FEF71BFA08BD10B5634860
:1023E0000078112878D2DFE800F0AD09131F2935F5
:1023F0003F4B55616B78828E949CA2005C4840886C
:102400004FF080418885C9135748FEF7AEFA9AE02D
:102410005748408840F6C911081A89078885C913AA
:102420005148FEF7A4FA8EE0514880884FF0804171
:10243000888589154B48FEF798FA84E04C488088D7
:1024400040F6C911081A8907888589154548FEF79D
:102450008EFA78E04648C0884FF080418885202178
:102460004148FEF782FA6EE04148C08840F6C91143
:10247000081A8907888520213B48FEF778FA62E030
:102480003B4800894FF08041888510213648FEF78F
:102490006CFA58E03648008940F6C911081A8907D5
:1024A000888510213048FEF762FA4CE030484089B8
:1024B0004FF08041888508212B48FEF756FA42E00C
:1024C0002B48408940F6C911081A890788850821D8
:1024D0002548FEF74CFA36E034E0254880894FF075
:1024E00080418885C9131F48FEF73FFA2BE020483A
:1024F000808940F6C911081A89078885C9131948C7
:10250000FEF735FA1FE01A48C0894FF080418885F0
:1025100019E01748C08940F6C911081A890788854B
:1025200011E01348008A4FF0804188850BE0104885
:10253000008A40F6C911081A8907888500200B49CE
:10254000087000E000BF00BF10BD10B5074800785C
:10255000401C06490870FFF741FF10BD0002300023
:102560000004300000080140000C0140140000206D
:102570000601002008B54FF4A060FDF753FE1C20B3
:102580008DF8000000208DF801008DF80200012078
:102590008DF803006846FDF74AFE08BD08B54FF404
:1025A000A060FDF73FFE1D208DF8000000208DF893
:1025B000010001208DF802008DF803006846FDF748
:1025C00036FE08BD08B54FF4A060FDF72BFE1E20B7
:1025D0008DF8000000208DF8010002208DF8020027
:1025E00001208DF803006846FDF721FE08BD0EB5F9
:1025F00001210846FEF7D5FB4FF08040FEF7AEFD07
:1026000040F6C910ADF804004720ADF800000020E6
:102610008DF80800ADF80600ADF8020069464FF0ED
:102620008040FEF76FFE01218807FFF78DFC012235
:1026300011469007FFF7DDF900214FF08040FFF7CA
:10264000BDF90EBD0EB501210220FEF7AAFB4748D9
:10265000FEF784FD0920ADF804004720ADF8000026
:102660000020ADF806008DF80800ADF802006946BC
:102670003E48FEF747FE01213C48FFF765FC01227A
:1026800011463A48FFF7B5F900213848FFF796F9A7
:102690000EBD0EB501210420FEF783FB3448FEF782
:1026A0005DFD4FF4FA60ADF804004720ADF800007E
:1026B0000020ADF806008DF80800ADF8020069466C
:1026C0002B48FEF71FFE01212948FFF73DFC0122A0
:1026D00011462748FFF78DF900212548FFF76EF9CD
:1026E0000EBD0EB501210820FEF75BFB2148FEF769
:1026F00035FD4FF6FF70ADF804004720ADF800003F
:102700000020ADF80600ADF8020069461948FEF752
:10271000F9FD01211748FFF717FC01221146154862
:10272000FFF767F900211348FFF748F90EBD10B510
:10273000FFF720FFFFF75BFFFFF744FFFFF7A9FF5D
:1027400010BD10B501218807FFF738F901210848AD
:10275000FFF734F910BD10B500214FF08040FFF7AE
:102760002DF900210248FFF729F910BD00040040AF
:1027700000080040000C004008B501210420FEF7CD
:1027800003FB4FF48040ADF8000028208DF80300D3
:1027900069467B48FEF73CF84FF46050ADF8000006
:1027A00010208DF8030003208DF80200694674485C
:1027B000FEF72EF808BD38B5044601200090002031
:1027C00070494870012000902EE0BDF800002040C4
:1027D00018B101206C49086002E000206A490860D5
:1027E0000120694908390860322001F07EF8002094
:1027F0006649C1F8AC01322001F077F80120634945
:10280000C1F8AC010846D0F8380130B15D484078D5
:10281000BDF8001008435B494870BDF800004FF652
:10282000FF7101EA40000090BDF80000FF28CCDDF8
:1028300038BD10B500205449091F08605449087874
:10284000FFF7B9FF52494878FFF7B5FF01204F491C
:10285000C1F8B0014B484078732801D1002010BD69
:102860000120FCE71CB50020019001200090002011
:102870004549091F086046490878FFF79CFF44490D
:102880004878FFF798FF0220019033E00120009084
:1028900024E001203C490839086000203B49C1F888
:1028A000AC01322001F021F801203849C1F8AC0117
:1028B0000846D0F8380150B132489DF80410405C09
:1028C000BDF8001008432F499DF804208854BDF836
:1028D00000004FF6FF7101EA40000090BDF80000D3
:1028E000FF28D6DD322001F000F89DF80400401CDE
:1028F000C0B201909DF804000928C7DB01202249DD
:10290000091F08601CBD002004E000211D4A11546D
:10291000411CC8B20928F8DB704710B5FFF7F3FF78
:10292000FFF7A0FF1748C0781649097940EA01204F
:102930001849088000241BE0174810F81400401EB6
:10294000012101FA00F013490988084070B91248C2
:1029500010F81400401E012101FA00F00D49097819
:1029600008400E490870601CC0B210BD601CC4B2A3
:10297000102CE1DB0020F8E701460248405C70477C
:1029800000080140B0010020B401214200002142B2
:102990001A000020180000201C0000203C0000202D
:1029A00008B501210820FEF7EFF94FF48040ADF89B
:1029B000000010208DF8030003208DF80200694606
:1029C0001748FDF725FF4FF480411548FDF7CDFF6F
:1029D00008BD10B54FF480411148FDF7C8FF4FF412
:1029E000FA7000F09AFF4FF480410D48FDF7BDFFEB
:1029F0004FF4FA7000F091FF4FF480410848FDF762
:102A0000B6FF4FF4FA7000F088FF4FF4804104489D
:102A1000FDF7ABFF4FF4FA7000F07FFF10BD000030
:102A2000000C014070B50546002405E0601CC4B2EE
:102A3000C82C01DD002070BD02212F48FEF757FB96
:102A40000028F3D029462C48FEF7FEFA002405E0C2
:102A5000601CC4B2C82C01DD0020ECE7012126482F
:102A6000FEF745FB0028F3D02348FEF7EFFAC0B28B
:102A7000E1E708B5012141F20400FEF785F9E02005
:102A8000ADF8000018208DF8030003208DF8020037
:102A900069461A48FDF7BCFEE0211848FDF765FFBE
:102AA0000020174908804FF48270488000208880F9
:102AB0000220C88001200881400248813820888196
:102AC0000020C881072008820B48FEF7E7F90121A2
:102AD0000948FEF788FAFF20FFF7A4FF08BD10B5EC
:102AE00004460748848101460348FEF7D7F90121CF
:102AF0000148FEF778FA10BD00300140000801409F
:102B0000BA01002010B500240020CC4908609020B4
:102B1000FFF788FF0020FFF785FF0020FFF782FF07
:102B20000020FFF77FFFFF20FFF77CFF44EA00242F
:102B3000FF20FFF777FF04430120C149C1F8B0012E
:102B4000204610BD08B501210820FEF71DF94FF4FD
:102B50008050ADF8000010208DF8030003208DF8A0
:102B600002006946B748FDF753FE4FF48051B5485F
:102B7000FDF7FBFEFFF77DFF0820FFF7B0FFFFF733
:102B8000C1FFB149088008BD10B500240020AB4941
:102B900008600520FFF746FFFF20FFF743FF0446CC
:102BA0000120A749C1F8B001204610BD10B5044668
:102BB0000020A24908600120FFF734FF2046FFF7FC
:102BC00031FF01209E49C1F8B00110BD10B50020B1
:102BD0009A4908600620FFF725FF01209849C1F8AF
:102BE000B00110BD10B50020944908600420FFF723
:102BF00019FF01209249C1F8B00110BD2DE9F04143
:102C000006460C46174600208C4908600320FFF753
:102C100009FFC4F30740FFF705FFC4F30720FFF7E0
:102C200001FFE0B2FFF7FEFE002505E0FF20FFF701
:102C3000F9FE7055681C85B2BD42F7DB01207F4963
:102C40000860BDE8F08110B500BFFFF79DFF00F000
:102C500001000028F9D110BD2DE9F04106460C46CF
:102C60001746FFF7B3FF0020744908600220FFF702
:102C7000D9FEC4F30740FFF7D5FEC4F30720FFF7E2
:102C8000D1FEE0B2FFF7CEFE002504E0705DFFF755
:102C9000C9FE681C85B2BD42F8DB012067490860A7
:102CA000FFF7D1FFBDE8F0812DE9F04107460E4660
:102CB0001446F0B2C0F58075AC4200DC254612E047
:102CC0002A4631463846FFF7C7FFAC4200D10BE039
:102CD0002F442E44601B84B2B4F5807F02DD4FF494
:102CE000807500E02546EBE700BFBDE8F08110B538
:102CF00004462403FFF76AFFFFF7A5FF00204F49B2
:102D000008602020FFF78EFEC4F30740FFF78AFE1D
:102D1000C4F30720FFF786FEE0B2FFF783FE012031
:102D20004749C1F8B001FFF78EFF10BD2DE9F0470C
:102D300081460F4616464FEA1738C7F30B0ACAF505
:102D40008054A64200DC344644E04FEA08314FF498
:102D500080523E48FFF752FF002508E00AEB0500CD
:102D60003A49085CFF2800D003E0681C85B2A54200
:102D7000F4DB00BFA54216DA4046FFF7B8FF002596
:102D800007E019F8050005EB0A01304A5054681CA9
:102D900085B2A542F5DB4FEA08314FF480522B484B
:102DA000FFF782FF04E0224639464846FFF77CFFE2
:102DB000A64200D10FE008F101084FF0000AA1443B
:102DC0002744301B86B2B6F5805F02DD4FF4805495
:102DD00000E03446B9E700BFBDE8F08710B5FFF763
:102DE000F5FEFFF730FF002014490860C720FFF709
:102DF00019FE01201249C1F8B001FFF724FF10BDF0
:102E000010B500200D490860B920FFF70BFE012026
:102E10000B49C1F8B001032000F067FD10BD10B5EB
:102E2000002006490860AB20FFF7FCFD01200449A3
:102E3000C1F8B001032000F058FD10BDB08121425F
:102E400000802142000C01403E000020CC01002007
:102E50000146A1F130020A2A1AD2DFE802F0050782
:102E6000090B0D0F11131517002011E001200FE0C1
:102E700002200DE003200BE0042009E0052007E01C
:102E8000062005E0072003E0082001E0092000BF3C
:102E900000BF7047F0B585B005460E461421684660
:102EA00002F0F2FA0024002700BF0CE00A20B5FB74
:102EB000F0F100FB115030300DF80400601CC4B27A
:102EC0000A20B5FBF0F5002DF0D12746002406E0DE
:102ED000381B401E1DF800003055601CC4B2BC42B7
:102EE000F6DB0020305505B0F0BD000010B5002421
:102EF000FE48007888BBFE480078072822DAFC48A4
:102F00000078401CFA490870FA480078401CF949DA
:102F1000087008460078072801D1002008700024B6
:102F20000DE0F54830F81400F249097801EBC101D1
:102F3000F24A02EB410121F81400601CC4B2092CD2
:102F4000EFDB02E00020EE490870E9480078002835
:102F500034DD0120EB49087030E0FFE7EA48006B00
:102F6000B0F5FA4F24D2E84890F8300000F00F0096
:102F700020B9E549096B0809FFF7B9FEE248006B83
:102F800001024FF48072E148FFF7D0FEDE48006B8B
:102F9000401CDD490863DE48006840F00100DC4960
:102FA0000860DC48007820F00100DA49087005E08C
:102FB000D848007840F00100D649087010BD0020C4
:102FC000012006E0CC4931F81010D34A22F8101045
:102FD000401C0728F6DB704770B505460024232106
:102FE000284602F0A4F904460CB9012070BD641C07
:102FF0002078302805DB2078392802DC60785028DA
:103000000ED0207830280DDB207839280ADC607853
:10301000302807D16078392804DCA078502801D105
:103020000020E3E720784D2801D10020DEE7BBA196
:10303000284602F086F990B1B548006840F4005087
:10304000B34908607821B84802F0FCF90020B7497C
:103050008872B7A1B84800F00AFE0120C6E7B7A100
:10306000284602F06EF950B1A948006840F480404B
:10307000A74908600020AD49C8720120B6E7B2A197
:10308000284602F05EF9041E10D0A148006840F402
:1030900000409F4908600020A449C87204F108005C
:1030A00002F038F9A149087301209FE7A9A1284639
:1030B00002F047F970B18D48007818B10120A74996
:1030C000087005E00120A649087000208D490870AD
:1030D00001208BE7A3A1284602F033F9B8B100F034
:1030E000FDFE3421884802F0CFF9A048406A8649A5
:1030F000C8629E48406A086301207C490870844881
:10310000006840F001008249086001206EE798A144
:10311000284602F016F960B10020974908807349EB
:10312000087001208E49087000207649087001203F
:103130005CE792A1284602F004F970B100208749AB
:1031400008706A4908708F4908707148006840F03B
:1031500010006F490860012048E78BA1284602F063
:10316000F0F8A0B100206149087089490870012079
:103170007B49087000206349087000F0AFFE644886
:10318000006840F020006249086001202EE781A11C
:10319000284602F0D6F8041E1CD0002053490870BF
:1031A0000120784908706E49087000205549087060
:1031B00000F094FEE01D02F0ADF85C498872887A58
:1031C00000F0EEFE5248006840F0400050490860B0
:1031D00001200BE771A1284602F0B3F888B140F254
:1031E000DF70FFF784FD4FF480726E494748FFF7A8
:1031F0009DFD4748006840F4805045490860012023
:10320000F4E669A1284602F09CF8041E23D00020B1
:103210003649087004F1080002F07CF84349486020
:10322000486800F0BDFE63A1284602F08AF8044613
:10323000A01C02F06FF8344948853548006840F01A
:1032400080003349086001204549087000202D495D
:1032500008700120CAE658A1284602F072F8B0B101
:1032600000202249087000F039FE01203F4981F812
:103270002D002748006840F480702549086001202F
:103280003749087000201F4908700120AEE649A1A7
:10329000284602F056F8041E26D000201349087074
:1032A00000F01CFE47A1284602F04BF80446601CC3
:1032B00002F030F81D494860486800F071FE3DA1F9
:1032C000284602F03EF80446A01C02F023F81749F5
:1032D00008720F48006840F400700D490860012032
:1032E000394908701E4971E076E000006001002055
:1032F0004401002047010020180100208800002020
:103300004B0100204C0100207C13002048120020BB
:103310006C010020750100200601002023323535A4
:103320005052414400000000E0130020B013002080
:103330002350574D520000000038014023323535EC
:1033400050554C4B0000000023323535504D4F4452
:10335000000000002353746F70000000650100201E
:103360004901002023446F776E0000004C130020B9
:103370002353544F50000000700100202356657203
:10338000692B00006301002023466C697374000000
:10339000610100202346526561642D0023505332A1
:1033A0000000000000F07D0023456E61626C652323
:1033B00000000000474300002344697361626C65AC
:1033C00000000000230000006601002008700020BB
:1033D0007B490870012009E67AA1284601F0B1FF77
:1033E000041E17D000207949087000F077FDA01D59
:1033F00001F090FF764948727648006840F480609A
:103400007449086001207449087000206C490870F4
:103410000120EBE571A1284601F093FF68B16D48EA
:10342000006840F400606B49086001206A49087038
:103430000020634908700120D8E56AA1284601F000
:1034400080FF38B16348006840F48030614908600B
:103450000120CBE566A1284601F073FF38B15D4835
:10346000006840F400305B4908600120BEE50020A0
:10347000BCE52DE9FE4F044600260027B046B146C4
:10348000B246B346002002900190009000252046ED
:10349000FFF7A2FD08B1BDE8FE8F2146574800F0B6
:1034A000E6FB042256A1204601F081FF60B947489F
:1034B000007810B1FFF71AFD7FE04648006840F041
:1034C00008004449086078E072E00298012811D1B0
:1034D000605D50280CD0605D4D2809D0605DFFF71D
:1034E000B7FC814606EB860009EB4000C6B201E05E
:1034F00000200290019801282DD1605D542801D050
:10350000012000E00020615D232901D0012100E0BD
:1035100000210840691E615C4D2901D0012100E0B5
:103520000021084048B1605DFFF792FC824607EB3E
:1035300087000AEB400087B20DE00020019040F6C2
:10354000C410874200DD07462F4820F816702F4828
:103550000670002700260098012818D1605DFFF74B
:1035600077FC834608EB88000BEB40001FFA80F8DD
:103570002548A0F80080681C205C0D2807D1B8F110
:10358000640F02DCFFF71BFD01E0FFF7AFFC605D9D
:10359000232801D101200290605D502801D1012033
:1035A0000190605D542801D101200090681C85B213
:1035B000605D0A2801D0FF2D87DB00BF6BE70000AC
:1035C0004C010020234644656C2D00006001002062
:1035D000B01300206C0100204901002023466F72C7
:1035E0006D61740023464D51454E41424C450000EB
:1035F00023464D5144495341424C45000048004048
:10360000234D50330000000018010020410000202D
:1036100008B501210820FDF7B7FB4FF40050ADF8C5
:10362000000010208DF8030003208DF80200694689
:103630000E48FDF7EDF84FF400510C48FDF795F9F1
:1036400008BD10B54FF400510848FDF790F94FF44C
:10365000FA7000F062F94FF400510448FDF785F963
:103660004FF4FA7000F059F910BD0000000C014051
:1036700000B587B001214FF40170FDF785FB4FF4D1
:103680000040FDF7E5FA0120ADF8040000208DF8B8
:10369000070001A92348FDF7BBF82348FCF730FEDB
:1036A000002002908DF80C008DF80D004FF4602082
:1036B00004900020059001208DF8180002A91A48F6
:1036C000FCF745FE01211848FCF76DFE1648FCF793
:1036D0008CFE00BF1448FCF78DFE0028FAD112487A
:1036E000FCF792FE00BF1048FCF793FE0028FAD1C9
:1036F00007B000BD10B504460723012221460A4841
:10370000FCF7BDFE01210848FCF78DFE00BF022139
:103710000548FCF7F9FF0028F9D00348FCF716FF2D
:1037200010BD0000000801400024014008B501213F
:103730000C20FDF729FB4FF40060ADF80000482095
:103740008DF8030069464048FDF762F84FF40061C8
:103750003D48FDF70CF90220ADF8000048208DF837
:10376000030069463948FDF753F808BD10B502213A
:103770003648FDF7E0F800284BD13548007808B905
:10378000012000E000203249087008460078F0B1BE
:103790000120304908702E49087003212E4800F09E
:1037A0005EFA4FF4967000F0B8F803212B4800F051
:1037B00056FA4FF4967000F0B0F829A12A4801F0AB
:1037C000D2FD0120294908702949087018E0032119
:1037D000214800F044FA4FF4967000F09EF803215F
:1037E000244800F03CFA4FF4967000F096F822A1BD
:1037F0001D4801F0B8FD01201C4908701C490870E3
:1038000000BF02211148FDF796F80028F9D0FFF714
:1038100018FF4FF400610C48FDF78DF8012812D114
:103820000FA1114801F09FFD0120104908701049B7
:10383000087000BF4FF400610348FDF77CF80128D1
:10384000F8D0FFF7FEFE10BD000C0140000801405B
:103850007200002071000020680000206B00002032
:1038600023314743310D0A0048120020480100204F
:103870004C0000206E00002023324743310D0A0027
:1038800030B538480068384AB0FBF2F1B1F1807FBA
:1038900001D301201DE021F07F40401E4FF0E022C7
:1038A000506150170F22002807DA13071D0E2F4B07
:1038B00000F00F04241F1D5503E013071C0E2C4BB2
:1038C0001C5400BF00204FF0E022906107201061DF
:1038D000002008B100BFFEE74FF0E020006920F0B3
:1038E00001004FF0E021086130BD224908604FF02F
:1038F000E021096941F001014FF0E022116100BFB0
:103900001C4909680029FBD14FF0E021096921F029
:1039100001014FF0E022116170474FF47A71414389
:10392000144A11604FF0E021096941F001014FF0A4
:10393000E022116100BF0F4909680029FBD14FF057
:10394000E021096921F001014FF0E0221161704787
:103950000848006820B107480068401E0549086013
:10396000704700009C01002040420F0018ED00E06D
:1039700000E400E048000020014600BF704700BF9F
:10398000F84A128802F04002002AF9D0C2B2F54B80
:103990001B1D1A80704708B54FF4A060FCF742FC6D
:1039A00025208DF8000001208DF8010000208DF801
:1039B000020001208DF803006846FCF738FC08BDC2
:1039C00008B54FF4A060FCF72DFC26208DF8000010
:1039D00001208DF801008DF802008DF80300684683
:1039E000FCF725FC08BD08B54FF4A060FCF71AFCF5
:1039F00027208DF8000001208DF8010002208DF8AD
:103A0000020001208DF803006846FCF710FC08BD99
:103A100008B5012144F20400FDF7B6F94FF4007037
:103A2000ADF8000003208DF8020018208DF8030087
:103A30006946CD48FCF7ECFE4FF48060ADF800001D
:103A400004208DF803006946C748FCF7E1FE08BD75
:103A500008B501210420FDF797F901214804FDF77D
:103A6000A0F90420ADF8000003208DF80200182012
:103A70008DF803006946BC48FCF7CAFE0820ADF883
:103A8000000004208DF803006946B748FCF7C0FE2B
:103A900008BD08B501210820FDF776F90121880449
:103AA000FDF77FF94FF48060ADF8000018208DF825
:103AB000030003208DF802006946AC48FCF7A8FE1D
:103AC00008BD10B50446012C04D1FFF764FFFFF7D1
:103AD0009FFF0CE0022C04D1FFF772FFFFF7B8FF45
:103AE00005E0032C03D1FFF77EFFFFF7D2FF10BDE7
:103AF0007FB505460C4600940020ADF80400ADF8F3
:103B00000600ADF80800ADF80C000C20ADF80A0076
:103B100069462846FEF773FA012240F225512846ED
:103B2000FEF705FB01212846FEF7F5FA7FBD10B52B
:103B300086B00446012144F20400FDF725F94FF454
:103B40000070ADF8140003208DF8160018208DF8D1
:103B5000170005A98448FCF75BFE4FF48060ADF8C0
:103B6000140004208DF8170005A97F48FCF750FECB
:103B70004FF4A060FCF756FB25208DF800000120D3
:103B80008DF8010000208DF8020001208DF803005F
:103B90006846FCF74CFB01940020ADF80800ADF836
:103BA0000A00ADF80C00ADF810000C20ADF80E00C6
:103BB00001A96C48FEF723FA012240F22551694819
:103BC000FEF7B5FA01216748FEF7A5FA06B010BD69
:103BD0001FB5044600940020ADF80400ADF80600BF
:103BE000ADF80800ADF80C000C20ADF80A006946ED
:103BF0005F48FEF704FA012240F225515C48FEF7C7
:103C000096FA01215A48FEF729FB01215848FEF790
:103C100082FA1FBD70B504460D4629462046FEF7C0
:103C2000E7FA00BF40212046FEF750FB0028F9D0FC
:103C300070BD70B505460E46002400BF0CE0295D3E
:103C40004C48FEF7D5FA00BF80214A48FEF73EFBFC
:103C50000028F9D0601C84B2B442F0DB70BD70B5AE
:103C600004460D4629462046FFF7E3FF70BD70B5B8
:103C700006460C46002505E014F8011B3046FFF708
:103C8000C9FF6D1C207810B1B5F5FA7FF4D370BD73
:103C900010B586B00446142101A801F0F5FB01A976
:103CA0002046FFF7F7F801A92E48FFF7E0FF06B01E
:103CB00010BD70B504460D4621462A48FFF7D7FFD0
:103CC0002846FFF7E5FF2CA12648FFF7D0FF70BD7F
:103CD00010B508212348FEF7F9FA18B10821214848
:103CE000FEF701FB40F225511E48FEF705FB0028B8
:103CF00036D040F225511B48FEF728FB1948FEF745
:103D00007BFAC4B21D48007810BB1D481D490968E4
:103D100044541C480068401C1A4908600846006862
:103D2000401E1749085C0A2804D016480068B0F500
:103D3000807F15D900201249124A12688854012048
:103D40000E4908701049087000200E49086007E00D
:103D50000E48007820B1532C02D101200C49087084
:103D600010BD00000038014000080140000C014077
:103D700000480040004400400A0000004C000020C1
:103D80004812002058000020480100206001002057
:103D90006501002010B508214448FEF797FA18B1D4
:103DA00008214248FEF79FFA40F225513F48FEF7AE
:103DB000A3FA002836D040F225513C48FEF7C6FA57
:103DC0003A48FEF719FAC4B23948007810BB3948AE
:103DD00039490968445438480068401C364908602D
:103DE00008460068401E3349085C0A2804D032485F
:103DF0000068B0F5807F15D900202E492E4A126840
:103E0000885401202A4908702C49087000202A494A
:103E1000086007E02A48007820B1532C02D1012025
:103E20002849087010BD10B5002440F225512648DD
:103E3000FEF762FA002833D040F225512248FEF7FF
:103E400085FA2148FEF7D8F9C4B22048007838BB7B
:103E5000232C06D100201E4908701E4809784454BE
:103E600015E01B480078401E1A49085C0D280ED149
:103E70000020174A12788854012014490870002045
:103E8000134908704FF480411348FCF770FD114846
:103E90000F49097844540E480078401C0C490870BA
:103EA00010BD10B50348FFF7E4FA10BD0044004010
:103EB0004C000020481200205C0000204801002037
:103EC00060010020650100200048004067010020DB
:103ED0006000002058140020000C014010B5302173
:103EE000FE4801F0D1FA30224FF4FA01FB48FEF708
:103EF00085FEFA48806AFA49884204D100BFF74833
:103F00000078092803DD3021F44801F0BDFA10BD26
:103F100010B50024F248F14988620820087008466C
:103F200090F82C404FF4FA60FEF7E1FE30224FF497
:103F3000FA01EA48FEF7FAFEFFF7D0FFE74890F8EB
:103F40002C00A04206D0E748007840F00400E54984
:103F5000087005E0E348007820F00400E1490870AB
:103F600010BD70B500240025601EDF490860FFF712
:103F7000B5FF00BF0CE0D948401C005D012805D109
:103F8000DA484455681CC5B2D7480460601CC4B206
:103F9000D24890F82C00A042EDDCD548056070BDF9
:103FA00010B504463421D34801F06EFA47F610509C
:103FB00000EB041001023422CE48FEF71FFECD486C
:103FC000C06ACC49096B884209D2CA480078A0422D
:103FD00005D1C8480178C148401C405C20B9342153
:103FE000C44801F051FA07E0C24890F82A00C249DB
:103FF0000872C048C06A086010BD70B5044600254C
:10400000BC4890F83050002000EB041000F00F0086
:1040100030B947F6105101EB04110809FEF767FEAD
:1040200047F6105000EB041001023422B148FEF7AD
:104030007DFE2046FFF7B4FFAE48006BA84206D0D5
:10404000A848007840F00800A649087005E0A54897
:10405000007820F00800A349087070BD30B58BB01F
:10406000282101A801F010FA00250024A3480068C7
:1040700000287DD0A148007800F0010048B141211E
:104080009F48FFF7C7FD9D48006820F001009B494D
:1040900008609A48007800F0080048B199A1984853
:1040A000FFF7E5FD9548006820F008009349086097
:1040B0009248007800F0020088B1884890F82C00FF
:1040C000421E92A101A801F0A1F801A98C48FFF7B6
:1040D000CEFD8A48006820F00200884908608748C1
:1040E000007800F0100048B18CA18548FFF7BFFDB3
:1040F0008248006820F01000804908607F480078FE
:1041000000F0200000284AD0744890F82C000028C5
:1041100035DD8AA17A48FFF7AAFD002423E06F4825
:10412000401C005D01281DD12046FFF739FF714872
:10413000006B7049C96A401A06D100216748401CCB
:104140000155FFF7E5FE0DE06A48006B6949C96A51
:10415000431A22467AA101A801F058F801A968483B
:10416000FFF785FD641C5D4890F82C00A04200E03C
:10417000CAE1D4D878A16248FFF779FD09E0574831
:1041800076A1426A01A801F041F801A95C48FFF755
:104190006EFD5A48006820F02000584908605748D2
:1041A000007800F0800068B152490878FFF725FFD9
:1041B0006BA15348FFF75BFD5048006820F080007A
:1041C0004E4908604D48008800F4807008B3002410
:1041D0000EE04248401C005D012808D12046FFF750
:1041E000DFFE0020434948852046FFF706FF641C98
:1041F0003A4890F82C00A042EBD8FFF789FE5CA16A
:104200003F48FFF734FD3D48006820F480703B498B
:1042100008603A48008800F40070D8B159A13848C5
:10422000FFF725FD3448037A58A1426801A800F041
:10423000EDFF01A93248FFF71AFD57A13048FFF7FB
:1042400016FD2E48006820F400702C4908600120FB
:10425000534908702948008800F4806000283AD04B
:104260002548407A1D4991F82C10884234DA002103
:104270002148427A1948401C8154FFF749FEFFF754
:1042800070FE1D48417A154890F82C00401E81426E
:104290001ED115480078401C104981F82C001248A6
:1042A0000068401C10B9002048620FE00E4800680A
:1042B000FFF776FE0F48006B084948620846406ADF
:1042C0000011102101EB001004494862FFF720FEA5
:1042D000FFF747FE66E06FE068E000004C13002047
:1042E00078563412750100207C010020C013002094
:1042F000780100207C130020B01300206C01002006
:10430000003801402343430D0A00000023446F7727
:104310006E2B4F4B2B25640D0A000000235665724F
:10432000692B554152542B4F4B2B3230313630399B
:1043300030362B3137360D0A000000002300000014
:104340004E616D653A25642E7478742D2D53697A0B
:10435000653A25642D2D00000D0A0000230D0A008A
:1043600023456E61626C652B4F4B2E2E2E0D0A007D
:104370002344697361626C652B4F4B2E2E2E0D0A00
:1043800000000000234F4B0D0A0000002325644766
:104390004325640D0A000000234C503D300D0A00F7
:1043A00064010020FBA1FE48FFF761FCFD480068A6
:1043B00020F48060FB490860FA48008800F400603F
:1043C00028B3F9A1F648FFF752FC0120FA4908701A
:1043D000FEF704FD0020F9490872F949486281F8A6
:1043E0002C002021F648401C01F02CF8FFF790FD2E
:1043F000F4A1EB48FFF73BFC0020EF490870E948C7
:10440000006820F40060E7490860FFF7AAFDE5486E
:10441000008800F4805048B1EEA1E148FFF727FC86
:10442000E048006820F48050DE490860DD480088DC
:1044300000F40050002867D0E048807A14287DDA24
:10444000E8480078002860D0E74800F063FFC5B274
:10445000DA48807AA84252D1E348001D00F05AFFA2
:10446000044623462A46E1A1DF48401E00F0CEFE66
:10447000DD49491ECA48FFF7FAFBD048807A401C44
:10448000CE49887223208DF804000846807A642182
:1044900090FBF1F00A2190FBF1F201FB12003030A9
:1044A000C0B28DF80500C548807A90FBF1F090FB12
:1044B000F1F201FB12003030C0B28DF80600BF48A7
:1044C000807A90FBF1F201FB12003030C0B28DF81F
:1044D000070050208DF8080052208DF80900412077
:1044E0008DF80A0044208DF80B000D208DF80C008B
:1044F0000A208DF80D0001A9BE48FFF7B8FB002087
:10450000B8490870BC49086062E0BB480068401CBC
:10451000B949086008460068B0F5967F58DBA7489F
:10452000807A401CA549887223208DF80400084633
:10453000807A642190FBF1F00A2100E03BE090FBDF
:10454000F1F201FB12003030C0B28DF805009B483B
:10455000807A90FBF1F090FBF1F201FB1200303019
:10456000C0B28DF806009548807A90FBF1F201FB0D
:1045700012003030C0B28DF8070050208DF80800CE
:1045800052208DF8090041208DF80A0044208DF852
:104590000B000D208DF80C000A208DF80D0001A9EC
:1045A0009448FFF764FB00208E4908709349087017
:1045B000914908600CE07B48006820F4005079497C
:1045C000086000207D49887274A17548FFF74FFB91
:1045D0007448008800F4804000B37848C07A1428FA
:1045E0001DDA85480068401C834908600846006859
:1045F00014281ADB7148C27A81A17B48401E00F062
:1046000005FE7949491E7B48FFF731FB6B48C07AAC
:10461000401C6A49C87200207749086005E061487B
:10462000006820F480405F4908605E48008800F41C
:10463000004008B36148C07A14281EDA6E4800684A
:10464000401C6D49086008460068052828DB5B4867
:10465000037BC27A6DA16448401E00F0D7FD624919
:10466000491E6448FFF703FB5448C07A401C534975
:10467000C87200206049086012E05048027B66A1C1
:1046800001A800F0C3FD01A94548FFF7F0FA45482D
:10469000006820F400404349086000205149087038
:1046A0004048006800F4803088B1FFF717FC012013
:1046B000434981F82E00FFF72BFC5CA13848FFF737
:1046C000D6FA3848006820F480303649086035480A
:1046D000006800F4003088B1FFF700FC0020384982
:1046E00081F82E00FFF714FC55A12D48FFF7BFFA03
:1046F0002C48006820F400302A4908600BB030BD17
:1047000010B554480078002842D000205249087063
:104710005049087051490870294890F82C00202809
:1047200025DAFFF71EFC4E48006B2549486201213F
:10473000234890F82C20401C81544A480078401CA3
:104740004749087008460078401C1D4981F82C0034
:104750004548007820F0200043490870FFF7D8FB57
:104760003F490878FFF749FCFFF7FBFB05E03E48AF
:10477000007840F020003C4908703B48007800F089
:10478000210028B90748006840F0020005496DE0A3
:104790006DE00000234644656C2B4F4B0D0A000072
:1047A000003801406C01002023466F726D61742B4C
:1047B00053746172740D0A0087010020B013002049
:1047C0004C13002023466F726D61742B4F4B0D0A02
:1047D00000000000235053322B4F4B2E2E2E0D0A7B
:1047E00000000000670100205914002023256450B8
:1047F000256400000048004090010020680100206E
:1048000023256450554C4B0D0A00000023256450AD
:104810004D4F4425640D0A0023323535504D4F4429
:1048200025642B304B2E2E2E0D0A000023464D51B1
:10483000454E41424C452B4F4B2E2E2E0D0A00006B
:1048400023464D5144495341424C452B4F4B2E2E4C
:104850002E0D0A0065010020600100206301002088
:104860007C1300207C010020750100200860FE48B8
:10487000007800287FD0FD480078002838D0FC4818
:104880000068FC49096B884225D2FB48007800F09B
:10489000400048B1F9A1FC48FFF7E9F9F648006883
:1048A00020F02000F44908604FF48071F74800F0D0
:1048B000EBFDEF48006801024FF48072F348FEF709
:1048C0009DF9F249F048FFF7D2F9E9480068401C29
:1048D000E749086009E0E648006818B1ECA1EA4839
:1048E000FFF7C5F90020E14908700020E24908609F
:1048F000E9480078002824D0DF48007800F008005C
:1049000028B9DB480068DB49C96A884277D1D848B2
:10491000007A002820DDD6480068D649096B884215
:1049200010D2D348006801024FF48072D748FEF7D6
:1049300065F90120D9490870CD480068401CCC4970
:1049400008605CE0CB48C06AC94908600846007A44
:10495000401E087253E00EE00020CF490870D04896
:10496000007800284BD0CFA1C748FFF780F900207E
:10497000CB49087043E0CD480068002800DA10BD3C
:10498000BB48007A00282ADDBB48007800F0080008
:1049900028B9B7480068B749C96A88422FD1B448D6
:1049A0000068B449096B884210D2B148006801021E
:1049B0004FF48072B548FEF721F90120B74908701D
:1049C000AB480068401CAA49086018E0A948C06AC2
:1049D000A74908600846007A401E08720FE0A44903
:1049E0004968B34A505CFFF7DBFAB0480068401EE4
:1049F000AE4908609E484068401C9D49486000BF21
:104A0000BDE770B5AB48007800287DDDA948007887
:104A1000401EA849087008460078052802DA0120DF
:104A2000A5490870A5480078401CA4490870A4480E
:104A30000078401CA249087008460078072801D178
:104A4000002008709D480078072802D100209B496B
:104A500008709B48007800EBC0009A4931F81000BC
:104A6000142190FBF1F09849088001247FE09448DC
:104A7000007800EBC000934901EB400030F81400CF
:104A80008E49097801EBC1018E4A02EB410131F8F0
:104A90001410884224DD8A49097801EBC10102EB38
:104AA000410131F81410854A127802EBC202854B9D
:104AB00003EB420232F81420881A01F0E4F8834A2A
:104AC00003C28148008801F0F5F805462A460B46E6
:104AD0007E4903C900F052FF7D4A02EBC40203C2C3
:104AE0007748007800EBC000764901EB400030F8D1
:104AF00014007249097801EBC101724A02EB4101CD
:104B000031F81410884200E03AE02EDC6B49097855
:104B100001EBC10102EB410131F81410684A12782F
:104B200002EBC202674B03EB420232F81420881AF0
:104B300001F0A9F8654A03C26348008801F0BAF899
:104B400005462A460B46614903C900F017FF604A33
:104B500002EBC40203C25E4800EBC40103C981F04A
:104B600000415B4A02EBC40203C2601CC4B2092CC0
:104B7000FFF67DAF0020574908805749087002E0D2
:104B800000205649087070BD2DE9FF5F4FF0000A04
:104B9000D34651480078012806D1504800780128B2
:104BA00001D1FFF72EFFC4E04A480088401C494964
:104BB00008800846008844490988884208D10120B5
:104BC000474908702C48006840F008002A490860EE
:104BD0004FF0010A91E03A49097801EBC101394AE5
:104BE00002EB410131F81A103E4A32F81A20501AED
:104BF000002801DB014600E04142052910DA0BF1F3
:104C0000010000F0FF0B2E48007800EBC0002D499A
:104C100001EB400030F81A00324921F81A0068E030
:104C20002C48008801F046F80446294800EBCA00E9
:104C3000D0E900633246204601F050F880468946AC
:104C40001E49097801EBC1011E4A02EB410131F80E
:104C50001A0001F02FF842464B46CDE9000100F062
:104C6000E5FDCDE902013FE048010020630100209D
:104C7000B01300207C1300206C01002023537461CA
:104C800072740D0A00000000003801404812002034
:104C900023456E640D0A0000660100204C000020D0
:104CA00064010020234147460D0A000078010020DE
:104CB000C0130020440100204B01002045010020CA
:104CC00046010020880000204E01002058010020ED
:104CD0000012002050010020490100204C0100205A
:104CE000950100200601002000F0A0FF5B4921F89B
:104CF0001A000AF1010000F0FF0ABAF1090FFFF6ED
:104D00006AAFBBF1080F02D10120554908704FF07E
:104D1000000B5448007801280BD151480078012835
:104D200007D100204F4908704D49087001204E49B5
:104D30000870BDE8FF9F10B5FFF7D0F8FFF711F935
:104D40004A480021016041608160C16010BDFEF7EA
:104D500097FDFDF715FB0120FEF7B3FE0220FEF7DD
:104D6000B0FE0320FEF7ADFEFDF7E1FCFDF7E9FC28
:104D7000FDF716FEFEF74CFCFDF7FEFCFEF778FC97
:104D8000FEF7D4FC4FF4E1313948FEF7B1FE4FF4A1
:104D9000E1313848FEF7ACFE4FF4E130FEF718FF82
:104DA000FDF7D0FE03E034A13148FEF760FFFDF7C8
:104DB000A9FE4EF616718842F5D1FDF70AFEFEF700
:104DC00040FC4FF4FA70FEF7A8FDFEF73AFCFFF73F
:104DD000B2FF15E02D480078012804D1FFF7D4FE7A
:104DE00000202A4908702A480078012804D1FFF7DA
:104DF00058F8002026490870FFF782FCFFF72EF9CB
:104E0000E8E703E01CA11A48FEF731FFFDF77AFE40
:104E10004EF616718842F5D11EA11548FEF727FF00
:104E200020480068A0F164010F221F48FDF77EFFB3
:104E30001EA10F48FEF71BFF1A480068A0F164018D
:104E40000F222048FDF7DAFE1E490948FEF70FFF42
:104E50001DA10748FEF70BFF00BFFEE7060100207B
:104E6000940100209501002049010020B01300208A
:104E700000380140004400404E6F7420466F756E4C
:104E800064205732355136340D0A00004A010020A3
:104E90004C00002020466F756E6420573235513625
:104EA000340D0A0074000020AC600008466C617389
:104EB0006820577269746520537563636573730D59
:104EC0000A000000D01100200D0A20466C617368B2
:104ED000205265616420537563636573730D0A0026
:104EE000704700BFFEE700BFFEE700BFFEE700BF60
:104EF000FEE770477047704710B5FEF729FD10BDFB
:104F000010B501218807FDF722F848B10121880773
:104F1000FDF72EF8FDF719FB01218807FDF714F8BE
:104F200010BD10B501213348FDF711F838B101214A
:104F30003048FDF71DF801218807FDF705F810BD81
:104F400010B501212C48FDF702F8002841D00121BD
:104F50002948FDF70DF829480078401C27490870BA
:104F6000084600780A280BD10120254908702549F8
:104F70000870254908702549087000201F490870ED
:104F800023480078012810D122480078401C21498C
:104F9000087008460078142807D1002008701E48C1
:104FA0000068C0431D49C1F8B8011948007880B9AC
:104FB0001B480078401C1A4908700846007864288D
:104FC00007D10020087014480068C0431349C1F895
:104FD000B80110BD10B501211248FCF7B8FF38B177
:104FE00001211048FCF7C4FF01218807FCF7ACFF42
:104FF00010BD0000000400400008004097010020A0
:105000004A01002072010020740100207301002079
:105010008701002099010020B881214200802142AF
:1050200098010020000C00400CB500200190009079
:105030006C48006840F480306A49086000BF6948E5
:10504000006800F4003000900198401C0190009826
:1050500018B90198B0F5A06FF1D16248006800F46A
:10506000003010B10120009001E000200090009875
:10507000012843D15C48006840F010005A4908609C
:105080000846006820F0030008600846006840F009
:10509000020008605348406852494860084640682A
:1050A00048600846406840F48060486008464068B0
:1050B00020F47C1048600846406840F4E8104860DE
:1050C0000846006840F08070086000BF45480068EE
:1050D00000F000700028F9D04248406820F003003A
:1050E000404948600846406840F00200486000BF00
:1050F0003C48406800F00C000828F9D10CBD10B500
:10510000FFF792FF10BD10B53648006840F001006F
:1051100034490860084640683449084031494860CD
:1051200008460068324908402E4908600846006871
:1051300020F4802008600846406820F4FE004860A3
:105140004FF41F008860FFF7DAFF4FF00060294935
:10515000086010BD10B5002100200022214B5B68C3
:1051600003F00C0121B1042906D0082928D107E059
:10517000214B224C236027E01F4B204C236023E06F
:10518000184B5B6803F47010164B5B6803F48032B5
:10519000022303EB904022B9194B4343174C236081
:1051A0000DE0104B5B6803F4003323B1144B434311
:1051B000124C236003E0104B4343104C236003E088
:1051C0000D4B0E4C236000BF00BF064B5B68C3F362
:1051D00003130C4CE15C094B1B68CB40074C23606C
:1051E00010BD000000100240002002400000FFF847
:1051F000FFFFF6FE08ED00E000127A009C0100209F
:1052000000093D00A0010020704700000FB41CB54C
:10521000074B06AA7B4469460090059800F0C3F945
:105220000020694600F0D2F91CBC5DF814FB0000B8
:10523000B50300002DE9F0410E460446002020622F
:105240002046E168884730B3252805D0D4E90121FC
:105250009047206A401CF2E7E16820460027884713
:10526000050018D0A5F14100192802D820354FF4C7
:1052700000673246294620462760FAF791FF40B181
:10528000012804D0F61D26F007060836D8E7361D9B
:10529000D6E72846DAE7206ABDE8F0812DE9F0413B
:1052A0000646002410687529314616A510D0AFF3C4
:1052B0000080002802DA404213A507E031688A071F
:1052C00001D512A502E0490704D511A5012401E08A
:1052D000AFF3008000210A2206F1240709E0B0FBA9
:1052E000F2FCB0FBF2F302FB1C003030785418469D
:1052F000491C0028F3D123462A463046BDE8F04138
:1053000000F0F2B8000000002D0000002B000000AB
:105310002000000070B5064600F0E2F8046805467B
:1053200030460A22002100F056F92C6070BD401E64
:10533000CAB210F8011F8A4202D00029F9D1002018
:10534000704730B505460B462A4613F8014B12F854
:10535000010B08B1A042F8D01CB1002802D06D1C8E
:10536000F1E7284630BD40EA0103024630B59B070D
:1053700010D14FF0013400E008C208C91D1B9D4345
:1053800015EAC41FF8D013F0FF0102F8011B0DD07D
:105390001B0AF8E711F8013B002B02F8013B05D08E
:1053A00011F8013B002B02F8013BF3D130BD40EA7C
:1053B000010370B59B072ED14FF00136042A2AD382
:1053C00008C810C99D1B9D43121F15EAC61517D0AA
:1053D000D8B2E1B2401A50EA056110D198B2A1B238
:1053E000401A50EA05410AD123F07F4024F07F4162
:1053F000401A50EA052102D1180EA0EB146070BDCE
:10540000A342DBD018BA21BA884201D9012070BD6D
:105410004FF0FF3070BD0AB9002070BD10F8013B9D
:1054200011F8014B63B1A3420AD1521E08D010F803
:10543000013B11F8014B1BB1A34201D1521EEDD12A
:10544000181B70BD4FF000020429C0F0128010F04C
:10545000030C00F01B80CCF1040CBCF1020F18BF50
:1054600000F8012BA8BF20F8022BA1EB0C0100F0E3
:105470000DB85FEAC17C24BF00F8012B00F8012BB6
:1054800048BF00F8012B70474FF0000200B51346EB
:1054900094469646203922BFA0E80C50A0E80C5054
:1054A000B1F12001BFF4F7AF090728BFA0E80C5005
:1054B00048BF0CC05DF804EB890028BF40F8042BFE
:1054C00008BF704748BF20F8022B11F0804F18BF6B
:1054D00000F8012B70477047704770477047000015
:1054E000004870478C1400202DE9F0470D4699467E
:1054F0009246044600F124080168880604D5E06954
:1055000021F01001216000E00120A84201DD471BCD
:1055100000E00027A1697A1902EB0900081AA061CE
:105520002078C00602D42046AFF30080002608E0B1
:10553000D4E901211AF806009047206A401C761C25
:1055400020624E45F4DB2078C0060AD52046AFF332
:10555000008006E0D4E9012130209047206A401CF9
:105560002062381EA7F10107F4DC07E0D4E901212D
:1055700018F805009047206A401C2062281EA5F1FB
:105580000105F3DC2046AFF300802078000602D549
:105590000220BDE8F0870120FBE7000001694A1CFA
:1055A00002610878704700B58FB0CDE90131002164
:1055B000059105497944CDE9031011466846FFF786
:1055C00039FE0FB000BD0000E5FFFFFF0A6802F8DA
:1055D000010B0A6070472DE9F04791460F4680465F
:1055E0000446002614F8015B2DB100F031F8006884
:1055F000405DC007F6D12B2D02D02D2D18D0641E92
:105600004A463946204600F02BF827B13968A142B6
:1056100001D1C7F800804FF0020471050BD540425C
:10562000002803DDFFF75CFF0460A007BDE8F087FA
:1056300046F48066E4E70028F8DAFFF751FF0460DB
:105640006FF00040F2E70000004870478C14002023
:1056500010B500F079F8001D10BD00BFA5010000D5
:105660002DE9F05F824615468B4600270AF10104BA
:10567000B9460078302801D09DB113E014F8010B31
:105680000127782803D0582801D045B10AE00DB190
:10569000102D07D1002714F8010B102502E0082572
:1056A00000E00A250026B0460EE005FB080005FBD9
:1056B00006F101271FFA80F801EB1046B6F5803F8E
:1056C00000D3B94614F8010B294600F041F8002830
:1056D000EBDABBF1000F05D00FB1641E00E05446B9
:1056E000CBF80040B9F1000F06D0FFF7F9FE022118
:1056F0000160C81EBDE8F09F48EA0640FAE775461B
:10570000FFF7A2FFAE4605006946534620F00700AA
:10571000854618B020B5FAF773FDBDE820404FF07C
:1057200000064FF000074FF000084FF0000B21F08B
:105730000701AC46ACE8C009ACE8C009ACE8C00958
:10574000ACE8C0098D46704700487047AC14002093
:105750003A2800D2303820F02002412A01D3A2F1A9
:105760003700884201D34FF0FF30704710B5044630
:10577000AFF300802046BDE81040FAF72CBD0000D2
:105780004FF0013C50F8042B51F8043B9A4221D1D0
:10579000A2EB0C03934313EACC1317D150F8042B5C
:1057A00051F8043B9A4215D1A2EB0C03934313EA40
:1057B000CC130BD150F8042B51F8043B9A4209D179
:1057C000A2EB0C03934313EACC13DBD04FF00000A1
:1057D000704700BFD01A01BAB1FA81F101F0180187
:1057E00022FA01F0CB40C1F12001DBB2C0B2C01AF5
:1057F0002CFA01F3D11A914311EAC311E6D1704793
:1058000010B500290AD00878002807D00548784448
:10581000FFF7B6FF002801D0002010BD02487844F1
:1058200010BD0000CE080000C608000010B591EAC7
:10583000030F48BF83F0004300F15683841A71EBD5
:10584000030C05D2121943EB0C03001B61EB0C0196
:10585000DFF824E14FEA1154A4EB135C1EEA430F76
:1058600018BF9EEA445F73D023EA0E03DCF1200EDA
:1058700021EA045143F4801332D322FA0CFE10EBD8
:105880000E0023FA0CFE41EB0E01CCF1200E03FAC0
:105890000EFE10EB0E0051F10001B1F5801FCCF1AE
:1058A000200E32D201EB045112FA0EF2BDE8104084
:1058B00058BF7047401C38BF5FEA420218BF7047AC
:1058C000002814BF20F0010041F100014FEA41031C
:1058D00013F5001F38BF7047A1F1C04100F0F6BAC0
:1058E000012A43EB0302ACF1200CDCF11F0E32BFA6
:1058F0004FF0000E23FA0CF310EB030041EB0451C0
:10590000B4EB115FD0D0A1EB045101F5801149082F
:105910005FEA300001EB04510ED350F1000038BFB4
:1059200012FA0EFE08D1BDE81040C9E7401C38BF8E
:105930005FEA4202CAD1C3E7BDE810404FEA410323
:1059400013F5001F38BF7047A1F1C04100F0BEBA87
:105950009EEA445F08D011EA5E0FBDE8104004BF24
:1059600001F0004100207047BDE8104070B500F024
:105970005FFA00BF64FBBE3E0000E0FF2DE9C041BE
:1059800030B4DFF8A0C23CEA111418BF3CEA13148B
:1059900000F0EC8081EA03051CEA111444EAD57496
:1059A00018BF1CEA131500F0C780A4EB05044FF0E4
:1059B000004545EAC12145EAC32341EA505143EA83
:1059C000525304F17F74994204F500344FEAC02029
:1059D0004FEAC22208BF904200F09C804FEA136554
:1059E0000FF24016765D4FEA134506FB05F7C7F147
:1059F000807706FB07F74FEAD737A7FB03687642A5
:105A0000C8F58038A7FB06CE38BFA8F1010807FB10
:105A100008E64FF0000EA6FB028CE6FB03CEDCF19D
:105A2000000CCEF1004E38BFAEF1010EA6FB0C58B3
:105A30004FF000074FF00005E6FB0E87A1FB08C6FC
:105A4000A0FB07CE16EB0E0645F10005E1FB07654E
:105A500015F1E04E7EBFA4F580345FEA46066D4145
:105A600016F1800745F100054FEA17274FEA066651
:105A700047EA0567A6F1DE46B6F1805F4FEA1525D5
:105A80001FD9384624F0010C05EBC471BCF1FE6F40
:105A900001EB0C1102D8F0BCBDE8008124425CBFD0
:105AA00001F5801E9EEAC47F02D4F0BCBDE80081EF
:105AB000244238D4F0BCA1F1C041BDE8004100F05F
:105AC00005BA4FEAD22242EA43524FEAD323A7FB58
:105AD00002864FEAD02040EA415007FB03661EEAE7
